:100000000C9418010C9452270C9479270C94A02777
:100010000C94C7270C94EE270C9415280C943C28BC
:100020000C9463280C94622E0C9440010C944001B3
:100030000C9440010C9440010C9440010C9440013C
:100040000C948A280C9440010C94242C0C94562C6B
:100050000C9440010C9440010C9440010C9440011C
:100060000C9440010C9440010C9440010C9440010C
:100070000C9440010C9440010C94B32C0C94E52C8E
:100080000C9440010C947E210C944001076342368D
:10009000B79BD8A71A39685618AEBAAB558C1D3C19
:1000A000B7CC5763BD6DEDFD753EF6177231BF00DD
:1000B0000000803F08000000BE922449123EABAA17
:1000C000AA2ABECDCCCC4C3E00000080BEABAAAA72
:1000D000AA3E00000000BF000000803F00000000BA
:1000E00000084178D3BB4387D1133D190E3CC3BDF3
:1000F0004282AD2B3E68EC8276BED98FE1A93E4CA0
:1001000080EFFFBE01C4FF7F3F0000000000000041
:10011000803FCDCCCC3D6F12833A95BFD6337D1D49
:100120009026B3CE010CCDCCCC3D0AD7233C17B7DB
:10013000D13877CC2B329595E6241FB14F0A0000B9
:1001400020410000C84200401C4620BCBE4CCA1BD7
:100150000E5AAEC59D740000000A0B0C0000000092
:10016000000001040506000000000000000000007F
:10017000000000000000000000000000000000007F
:100180000000000000000000000000010204081050
:100190002040800102040810204080081001020461
:1001A0000810204080010201020408102040800451
:1001B0008040201008040201010204081020408041
:1001C00005050505050505050202020202020202F7
:1001D00007070404040404040404070703030303D7
:1001E00003030303070101010101010101060606E2
:1001F00006060606060000390036003300300021EE
:10020000002000630000003B00380035003200236E
:10021000006200650000003A00370034003100221F
:10022000006100640002D0197220862C152DEB1994
:1002300011241FBECFEFD0E1DEBFCDBF11E0A0E0A3
:10024000B1E0ECE8F8E602C005900D92AE3AB107D5
:10025000D9F726E0AEEAB1E001C01D92AD3FB2078A
:10026000E1F711E0C7E1D1E004C02197FE010E944F
:10027000EB32C331D107C9F70E94BF2E0C94393439
:100280000C940000FC0111821082138212821582EC
:10029000148216821782108611861386128614869F
:1002A00015861686178608952F923F924F925F9279
:1002B0006F927F928F929F92AF92BF92CF92DF9276
:1002C000EF92FF920F931F93CF93DF9300D000D054
:1002D0001F92CDB7DEB79D838C83EB8224E1222E63
:1002E000312CC12CD12C7601C8969A8389830C813C
:1002F0001D81005F1F4F58018B810E946229F5010B
:10030000819391935F0189819A818E179F07A1F74D
:10031000F801619171918F01072E000C880B990BE8
:100320000E94EF2F9B01AC01C701B6010E94D42EA1
:100330006B017C01A016B10659F720E030E040EADD
:1003400051E40E94452F6B017C0120E030E040E445
:1003500050E40E9411312B013C01A7019601C70115
:10036000B6010E94A4302CEE31E548EB5DE30E941B
:10037000A4304B015C0127E137EB41E558EBC301A9
:10038000B2010E94A4309B01AC01C501B4010E94DE
:10039000D42E4B015C0126E636E64AE152E4C70161
:1003A000B6010E94A4309B01AC01C501B4010E94BA
:1003B000D32E20E03EE441E057E40E94D42E20E01A
:1003C00030E04AE754E40E94452F4B015C01EC8188
:1003D000FD8186829782A086B18620E030E048ECDD
:1003E00052E4C701B6010E94402F18161CF1EC819F
:1003F000FD811682178210861186812C912C540162
:10040000C501B4010F900F900F900F900F90DF91E6
:10041000CF911F910F91FF90EF90DF90CF90BF9001
:10042000AF909F908F907F906F905F904F903F9094
:100430002F900895F1E02F1A310809F058CFE0CF3E
:100440002F923F924F925F926F927F928F929F92E4
:10045000AF92BF92CF92DF92EF92FF920F931F93D2
:10046000CF93DF9300D000D0CDB7DEB7CB01BA0178
:100470001901E982FA820B831C832501360120E0F1
:1004800030E040E251E40E94A4304B015C0120E0E6
:1004900030E040E251E46D8D7E8D8F8D98A10E94F9
:1004A000A4306B017C0120E030E040E251E469A11E
:1004B0007AA18BA19CA10E94A4309B01AC01C70131
:1004C000B6010E94D32E6B017C0181E02816310415
:1004D00009F06FC020E030E0A901C301B2010E9421
:1004E000402F81110EC020E030E0A901698D7A8D86
:1004F0008B8D9C8D0E94402F8111AEC090E080E0DA
:10050000ABC020E030E040E251E4C301B2010E9400
:10051000A4309B01AC01C501B4010E94D32E4B0154
:100520005C0120E030E040E05FEB0E94402F87FF5D
:100530000CC020E030E0A901C701B6010E949F3045
:1005400087FDA1C082E890E087C020E030E046E16E
:1005500053E4C501B4010E94402F87FF0AC020E088
:1005600030E040E05FE3C501B4010E949F3087FFA7
:10057000E9CF20E030E040E05FE3C501B4010E9434
:10058000402F87FF69C020E030E040E05FEBC5010D
:10059000B4010E949F3087FD5FC020E030E0A901D8
:1005A000C701B6010E949F3087FFCCCF84E690E060
:1005B00053C082E02816310409F04EC020E030E03C
:1005C000A90169817A818B819C810E94402F87FDDE
:1005D00095CF20E030E040E251E469817A818B815F
:1005E0009C810E94A4309B01AC01C501B4010E9412
:1005F000D32E4B015C0120E030E040E05FEB0E9435
:10060000402F87FD96CF20E030E046E153E4C5015E
:10061000B4010E94402F87FF0AC02DEC3CEC4CEC4B
:100620005DE3C501B4010E949F3087FF8BCF2DECA5
:100630003CEC4CEC5DE3C501B4010E94402F87FF08
:100640000BC020E030E040E05FEBC501B4010E9448
:100650009F3018160CF4A1CF0F900F900F900F90B1
:10066000DF91CF911F910F91FF90EF90DF90CF908E
:10067000BF90AF909F908F907F906F905F904F90C2
:100680003F902F90089582E390E0E6CF2F923F9223
:100690004F925F926F927F928F929F92AF92BF9292
:1006A000CF92DF92EF92FF920F931F93CF93DF933E
:1006B000CDB7DEB7CB01BA01190120E030E040E24E
:1006C00051E40E94A4302B013C0181E02816310442
:1006D00009F02AC320E030E040E251E4C501B40152
:1006E0000E94A4309B01AC01C301B2010E94D32E31
:1006F0006B017C0120E030E040E251E46D897E89AD
:100700008F89988D0E94A4309B01AC01C301B20176
:100710000E94D32E2B013C010115110509F07FC168
:1007200020E030E0A901C501B4010E94402F8111F1
:100730000DC020E030E0A9016D897E898F89988DF8
:100740000E94402F8111B9C0C8018AC420E030E066
:1007500040E05FEBC701B6010E94402F87FF0AC04F
:1007600020E030E046EC52ECC701B6010E949F3019
:10077000181654F320E030E046E153E4C701B60117
:100780000E94402F87FF0AC020E030E04DE852E48D
:10079000C701B6010E949F3087FF90C420E030E07F
:1007A0004DE852E4C701B6010E94402F87FF0AC0FE
:1007B00020E030E04AE452E4C701B6010E949F30D5
:1007C00087FF7FC420E030E04AE452E4C701B6016D
:1007D0000E94402F87FF0AC020E030E042E252E44E
:1007E000C701B6010E949F3087FF71C420E030E04E
:1007F00042E252E4C701B6010E94402F87FF0AC0BF
:1008000020E030E044EA51E4C701B6010E949F3085
:1008100087FF63C420E030E044EA51E4C701B60139
:100820000E94402F87FF0AC020E030E048E251E4F8
:10083000C701B6010E949F3087FF52C420E030E01C
:1008400048E251E4C701B6010E94402F87FF0AC069
:1008500020E030E040EB50E4C701B6010E949F3039
:1008600087FF1DC420E030E040EB50E4C701B60133
:100870000E94402F87FF0AC020E030E040EC5FE399
:10088000C701B6010E949F3087FF99C120E030E088
:1008900040EC5FE3C701B6010E94402F87FFE0C331
:1008A00020E030E040E05FEBC701B6010E949F30DE
:1008B00087FDD6C300E410E047CF20E030E040E001
:1008C0005FEBC301B2010E94402F87FF0BC020E005
:1008D00030E046EC52ECC301B2010E949F30181682
:1008E0000CF4D4C320E030E046E153E4C301B2018C
:1008F0000E94402F87FF0AC020E030E04DE852E41C
:10090000C301B2010E949F3087FFD8C320E030E0CE
:100910004DE852E4C301B2010E94402F87FF0AC094
:1009200020E030E04AE452E4C301B2010E949F306B
:1009300087FFC7C320E030E04AE452E4C301B201BC
:100940000E94402F87FF0AC020E030E042E252E4DC
:10095000C301B2010E949F3087FFB9C320E030E09D
:1009600042E252E4C301B2010E94402F87FF0AC055
:1009700020E030E044EA51E4C301B2010E949F301C
:1009800087FFABC320E030E044EA51E4C301B20189
:100990000E94402F87FF0AC020E030E048E251E487
:1009A000C301B2010E949F3087FF9AC320E030E06C
:1009B00048E251E4C301B2010E94402F87FF0AC000
:1009C00020E030E040EB50E4C301B2010E949F30D0
:1009D00087FF65C320E030E040EB50E4C301B20183
:1009E0000E94402F87FF0AC020E030E040EC5FE328
:1009F000C301B2010E949F3087FFE1C020E030E0D8
:100A000040EC5FE3C301B2010E94402F87FF28C37F
:100A100020E030E040E05FEBC301B20147CF01309E
:100A2000110509F01DC320E030E0A901C501B401A2
:100A30000E94402F81110EC020E030E0A9016D8995
:100A40007E898F89988D0E94402F8111BBC010E054
:100A500000E07ACE20E030E040E05FEBC701B60175
:100A60000E94402F87FF0BC020E030E046EC52ECA4
:100A7000C701B6010E949F3018160CF407C320E08E
:100A800030E046E153E4C701B6010E94402F87FFE2
:100A90000AC020E030E04DE852E4C701B6010E94F0
:100AA0009F3087FFF6C220E030E04DE852E4C701F6
:100AB000B6010E94402F87FF0AC020E030E04AE4E0
:100AC00052E4C701B6010E949F3087FFF7C220E0C1
:100AD00030E04AE452E4C701B6010E94402F87FF8C
:100AE0000AC020E030E042E252E4C701B6010E94B1
:100AF0009F3087FFDAC220E030E042E252E4C701D3
:100B0000B6010E94402F87FF0AC020E030E044EF8A
:100B100051E4C701B6010E949F3087FFD5C220E093
:100B200030E044EF51E4C701B6010E94402F87FF37
:100B30000AC020E030E048E251E4C701B6010E945B
:100B40009F3087FFA9C220E030E048E251E4C701AE
:100B5000B6010E94402F87FF0AC020E030E040EB42
:100B600050E4C701B6010E949F3087FF98C220E081
:100B700030E040EB50E4C701B6010E94402F87FFF0
:100B80000AC020E030E040EC5FE3C701B6010E94FC
:100B90009F3087FF78C220E030E040EC5FE3C70180
:100BA000B6010E94402F87FF5BC220E030E040E0AA
:100BB0005FEBC701B6010E949F3087FD51C208E478
:100BC00010E0C2CD20E030E040E05FEBC301B201B5
:100BD0000E94402F87FF0BC020E030E046EC52EC33
:100BE000C301B2010E949F3018160CF44FC220E0DE
:100BF00030E046E153E4C301B2010E94402F87FF79
:100C00000AC020E030E04DE852E4C301B2010E9486
:100C10009F3087FF3EC220E030E04DE852E4C30140
:100C2000B2010E94402F87FF0AC020E030E04AE472
:100C300052E4C301B2010E949F3087FF3FC220E00F
:100C400030E04AE452E4C301B2010E94402F87FF22
:100C50000AC020E030E042E252E4C301B2010E9447
:100C60009F3087FF2EC220E030E042E252E4C30111
:100C7000B2010E94402F87FF0AC020E030E044EF1D
:100C800051E4C301B2010E949F3087FF1DC220E0E2
:100C900030E044EA51E4C301B2010E94402F87FFD3
:100CA0000AC020E030E048E251E4C301B2010E94F2
:100CB0009F3087FFF1C120E030E048E251E4C301FA
:100CC000B2010E94402F87FF0AC020E030E040EBD5
:100CD00050E4C301B2010E949F3087FFE0C120E0D1
:100CE00030E040EB50E4C301B2010E94402F87FF87
:100CF0000AC020E030E040EC5FE3C301B2010E9493
:100D00009F3087FFCFC120E030E040EC5FE3C301BC
:100D1000B2010E94402F87FFA3C120E030E040E0F5
:100D20005FEBC301B20147CF82E02816310409F01E
:100D300097C120E030E040E251E4C701B6010E94D3
:100D4000A4309B01AC01C301B2010E94D32E4B0120
:100D50005C010115110509F0C1C020E030E0A901D6
:100D6000C701B6010E94402F87FDEECC20E030E0A5
:100D700040E05FEBC501B4010E94402F87FF0BC02C
:100D800020E030E046EC52ECC501B4010E949F30F7
:100D900018160CF4D9CC20E030E046E153E4C5014C
:100DA000B4010E94402F87FF0AC020E030E04DE8E8
:100DB00052E4C501B4010E949F3087FF7CC120E04E
:100DC00030E04DE852E4C501B4010E94402F87FF96
:100DD0000AC020E030E04AE452E4C501B4010E94B8
:100DE0009F3087FF62C120E030E04AE452E4C50151
:100DF000B4010E94402F87FF0AC020E030E044EF9A
:100E000051E4C501B4010E949F3087FF5DC120E01D
:100E100030E044EF51E4C501B4010E94402F87FF48
:100E20000AC020E030E044EA51E4C501B4010E9468
:100E30009F3087FF4FC120E030E044EA51E4C50114
:100E4000B4010E94402F87FF0AC020E030E048E252
:100E500051E4C501B4010E949F3087FF3EC120E0EC
:100E600030E048E251E4C501B4010E94402F87FF01
:100E70000AC020E030E040EB50E4C501B4010E941C
:100E80009F3087FF15C120E030E040EB50E4C50102
:100E9000B4010E94402F87FF0AC020E030E040EC00
:100EA0005FE3C501B4010E949F3087FF88CE20E038
:100EB00030E040EC5FE3C501B4010E94402F87FFA2
:100EC000CFC020E030E040E05FEBC501B4010E94FC
:100ED0009F3087FDC5C004E310E036CC013011051A
:100EE00009F0BEC020E030E0A901C701B6010E94B0
:100EF000402F87FDACCD2DEC3CEC4CEC5EEBC501FE
:100F0000B4010E94402F87FF0BC020E030E046EC88
:100F100052ECC501B4010E949F3018160CF497CD15
:100F200020E030E046E153E4C501B4010E94402FC7
:100F300087FF0AC020E030E04DE852E4C501B4016B
:100F40000E949F3087FFB7C020E030E04DE852E4B8
:100F5000C501B4010E94402F87FF0AC020E030E0A5
:100F60004AE452E4C501B4010E949F3087FFA6C045
:100F700020E030E04AE452E4C501B4010E94402F71
:100F800087FF0AC020E030E044EF51E4C501B4011E
:100F90000E949F3087FF95C020E030E044EF51E48D
:100FA000C501B4010E94402F87FF0AC020E030E055
:100FB00044EA51E4C501B4010E949F3087FF84C018
:100FC00020E030E044EA51E4C501B4010E94402F22
:100FD00087FF0AC020E030E048E251E4C501B401D7
:100FE0000E949F3087FF73C020E030E048E251E468
:100FF000C501B4010E94402F87FF0AC020E030E005
:1010000040EB50E4C501B4010E949F3087FF62C0ED
:1010100020E030E040EB50E4C501B4010E94402FD5
:1010200087FF0AC020E030E040EC5FE3C501B40177
:101030000E949F3087FF51C020E030E040EC5FE32A
:10104000C501B4010E94402F87FF0AC02DEC3CEC83
:101050004CEC5EEBC501B4010E949F3087FF40C09D
:10106000DF91CF911F910F91FF90EF90DF90CF9084
:10107000BF90AF909F908F907F906F905F904F90B8
:101080003F902F90089502E510E05ECB0AE010E05B
:101090005BCB01EE10E058CB0CE810E055CB0AE535
:1010A00010E052CB00E510E04FCB02ED10E04CCB4E
:1010B0000FE510E049CB0FEF10E046CB0CED10E050
:1010C00043CB08EC10E040CB04EB10E03DCB0AEA48
:1010D00010E03ACB06E910E037CB08E710E034CB5C
:1010E00004E610E031CB08950895FB01309759F0E4
:1010F000948190789860948390E0B0E0A0E0808341
:101100009183A283B3830895FC012581222339F0C2
:10111000F8E02F0290011124820F931F089590E0B0
:1011200080E008950F931F93CF93DF93D0E0C0E04A
:101130006115710591F08B01FC01C081D18120976F
:1011400061F06E817F81C8010E943034892B29F0C3
:10115000CE010E948408EC01F2CFCE01DF91CF9145
:101160001F910F910895FC01248126FF14C08081F6
:101170009181009791F06115710579F0FC0125814D
:1011800061507109222339F0F8E02F0290011124F7
:10119000820F931FF0CF90E080E00895CF93DF930C
:1011A000DC01EB01EC81FD818A819B810896E817C7
:1011B000F90740F481E08887F0E0E0E0CF01DF91BB
:1011C000CF9108953897FD83EC833097B9F3129649
:1011D000CD91DC911397209791F0CF018C1B9D0B43
:1011E00023E0959587952A95E1F78D831396FC93D7
:1011F000EE9312971582148217821682DFCF119612
:10120000FC93EE93F3CFEF92FF920F931F93CF9344
:10121000DF93EC018B017A01892B29F18C81982FC6
:101220009F7739F4807880648C83198218821B82BE
:101230001A828C8186FF17C088819981009741F0BE
:101240000115110591F00E94840801501109F6CF93
:10125000015011090E3F2FEF120739F0B701CE01EF
:101260000E94CE08F5CF90E080E0DF91CF911F91F2
:101270000F91FF90EF900895EF92FF920F931F93BD
:10128000CF93DF93EC018C81982F9F7739F480788E
:1012900080628C83198218821B821A828C8185FD60
:1012A00009C080E090E0DF91CF911F910F91FF90F6
:1012B000EF90089561157105A1F37A018B01CE01BC
:1012C0000E949208009779F7B701CE010E94CE08DC
:1012D000FC01892B31F383E798E0892B29F0848185
:1012E0008F77848317830683CF01DDCF4F925F9280
:1012F0006F927F928F929F92AF92BF92CF92DF9226
:10130000EF92FF920F931F93CF93DF93EC018B012A
:1013100088818B32C9F18D32C1F52196FF24F39477
:10132000888190ED980F9A3018F08E3209F04DC1F7
:1013300060E070E0CB01FE012191A0ED8A2E820ECB
:1013400039E0381520F16A3949E97407840749E121
:10135000940738F5AAE0B0E09B01AC010E9400338D
:10136000912CB12CA12C240135014094509460940F
:101370007094461657066806790698F0680D791D30
:101380008A1D9B1DEF01D7CF2196F12CC9CF2111CA
:1013900008C0FF20F1F161307105810550E8950723
:1013A000A0F0E12CEAE08E2E912CA12CB12C61153D
:1013B0007105F0E88F079105C0F1A50194010E9425
:1013C000AA32CA01B901E394F2CFF801248120784E
:1013D0002A6024839B01AC0188279927DC01821BAA
:1013E000930BA40BB50B80839183A283B3838F2DC2
:1013F000DF91CF911F910F91FF90EF90DF90CF90F1
:10140000BF90AF909F908F907F906F905F904F9024
:101410000895F801248120782860248360837183F3
:1014200082839383FF24F394E2CFFE01299130ED70
:10143000320F3A3010F4E394F8CF2E32F1F4EF018A
:101440002196FE012196208150EDD52ED20E29E065
:101450002D1598F06C3C3CEC73073CE0830791053C
:1014600080F7AAE0B0E09B01AC010E9400336D0D53
:10147000711D811D911DEA94E4CF20812F7DD0E064
:10148000C0E0253409F05DC021812D32D9F53296B6
:10149000CC24C394DF01D0E0C0E02E2D0E2C000C34
:1014A000330B4AE0B42EFD01DD9040ED4D0D4A3086
:1014B00008F042C0BC9EA001BD9E500D1124CD2D50
:1014C000DD0CDD0BE097C40FD51FAE01420F531F9B
:1014D0004732510544F3F8018481CC20D1F040E03B
:1014E00050E060E070E8F11003C040E050E0BA0165
:1014F00080788C60F8018483408351836283738396
:10150000FC2C75CF2B3219F03196C12CC3CF3296FB
:10151000FCCF40E050E060E87FEFF11004C040E015
:1015200050E060E87FE780788C60F8018483408336
:1015300051836283738376CFCC2019F0D195C19506
:10154000D1092081211141C0CE0DD11DE7FCDA95D2
:101550000E94ED2F1C161D0604F5E12CC0FF0CC0E7
:1015600024E0E29EF0011124E25CFE4F25913591CA
:10157000459154910E94A430D595C795E394209746
:1015800069F7F1109058F801248120782C602483A9
:10159000608371838283938345CFD195C195D109AF
:1015A000E12C209771F3C0FF0CC044E0E49EF001F1
:1015B0001124EA5DFE4F25913591459154910E9489
:1015C000A430D595C795E394ECCFF12C10CF61E012
:1015D0008AE10E94202A61E084E00E94202A61E0E2
:1015E00083E00E94202A61E08DE00E94202A61E0D1
:1015F00081E20E94202A61E08CE00E94202A61E0C2
:1016000084E30E94202A60E082E30E94202A60E0B6
:101610008EE00C94202A40E855E260E070E086E01D
:1016200093E00E94722626E040E855E260E070E018
:1016300085E596E00E94CC2B67EA74E08BE293E0AC
:101640000E949E220E94E70A26E238E148EC50E020
:1016500060E070E08AE592E00E94191E70E060E0B0
:101660008DE00C9477298F929F92AF92BF92CF9288
:10167000DF92EF92FF9285E293E00E94D41C4B012F
:101680005C0185E293E00E94EB1C6B017C0120E091
:1016900030E040E85FE3C501B4010E94402F87FFBE
:1016A00008C010929B0410929C0410929D0410920A
:1016B0009E0420E030E040E85FE3C501B4010E94F1
:1016C0009F30181644F480929B0490929C04A09240
:1016D0009D04B0929E0420E030E040E85FE3C70143
:1016E000B6010E94402F87FF08C010929704109205
:1016F00098041092990410929A0420E030E040E897
:101700005FE3C701B6010E949F30181644F4C092EF
:101710009704D0929804E0929904F0929A04FF9072
:10172000EF90DF90CF90BF90AF909F908F900895F3
:101730008F929F92AF92BF92CF92DF92EF92FF92E1
:101740000F931F9300910E0110910F012091100132
:1017500030911101409112015091130160911401D7
:10176000709115018DE2E82EF12C8DE293E00E943C
:1017700054014B015C010091060110910701209179
:1017800008013091090140910A0150910B016091CB
:101790000C0170910D019EE2E92EF12C8DE293E097
:1017A0000E9454016B017C0120E030E048EA51E4E2
:1017B000C501B4010E949F3018165CF58092A30405
:1017C0009092A404A092A504B092A6040E94D428EA
:1017D0000091930410919404209195043091960403
:1017E000601B710B820B930B693E73408105910561
:1017F00080F08091A3049091A404A091A504B091DD
:10180000A6048093800490938104A0938204B093F3
:10181000830420E030E040EB51E4C501B4010E94B4
:10182000402F87FF10C01092A3041092A4041092BE
:10183000A5041092A60410928004109281041092C4
:1018400082041092830420E030E048EA51E4C701AA
:10185000B6010E949F3018165CF5C0929F04D0928A
:10186000A004E092A104F092A2040E94D4288090E7
:10187000930490909404A0909504B09096046819F5
:1018800079098A099B09693E73408105910580F0B9
:1018900080919F049091A004A091A104B091A20412
:1018A00080937C0490937D04A0937E04B0937F0486
:1018B00020E030E040EB51E4C701B6010E94402F28
:1018C00087FF10C010929F041092A0041092A104F0
:1018D0001092A20410927C0410927D0410927E0457
:1018E00010927F041F910F91FF90EF90DF90CF90A7
:1018F000BF90AF909F908F900895CF93DF93EC01AE
:1019000084E00E947729BE0183E0DF91CF910C949F
:1019100077294F925F926F927F928F929F92AF92B0
:10192000BF92CF92DF92EF92FF920F931F93CF93CC
:10193000DF9300D000D000D0CDB7DEB7A090A304D5
:10194000B090A404C090A504D090A60480919B04FC
:1019500090919C04A0919D04B0919E0489839A83E8
:10196000AB83BC8390918F04A92FB0E0BE83AD837D
:1019700040901701509018016090190170901A0161
:1019800080919A048F93809199048F938091980409
:101990008F93809197048F936091160170E090E08F
:1019A00080E00E94ED2F9F938F937F936F938091A0
:1019B000A2048F938091A1048F938091A0048F93B0
:1019C00080919F048F93E980FA800B811C812D8187
:1019D0003E81B301A2018DE293E00E942002809338
:1019E00092048090A3049090A404A090A504B090C9
:1019F000A604C0909B04D0909C04E0909D04F090BD
:101A00009E0400918D0410E020918F0430E04091FD
:101A10001701509118016091190170911A0180917C
:101A2000A2048F938091A1048F938091A0048F933F
:101A300080919F048F938DE293E00E9446038093F0
:101A40009104BC0177278091920490E00E947D0C64
:101A50000FB6F894DEBF0FBECDBF80918F04811109
:101A600025C080918E04811121C070E060E090E07B
:101A700080E00E947D0C70E060E08DE026960FB65D
:101A8000F894DEBF0FBECDBFDF91CF911F910F91B4
:101A9000FF90EF90DF90CF90BF90AF909F908F908E
:101AA0007F906F905F904F900C94772926960FB699
:101AB000F894DEBF0FBECDBFDF91CF911F910F9184
:101AC000FF90EF90DF90CF90BF90AF909F908F905E
:101AD0007F906F905F904F9008958F929F92AF92FA
:101AE000BF92CF92DF92EF92FF92809097049090F6
:101AF0009804A0909904B0909A04609116018AE02D
:101B0000689FB0011124072E000C880B990B0E94CE
:101B1000EF2F6B017C0120E030E040E251E4C50191
:101B2000B4010E94A4309B01AC01C701B6010E9420
:101B3000D32E6B017C01C0927804D0927904E0929C
:101B40007A04F0927B0480918E04813081F420E04D
:101B500030E0A901C501B4010E94402F87FF1BC0DE
:101B600070E060E08DE00E947729109290048091EF
:101B70008E04811107C070E060E08DE00E9477293B
:101B800010929004FF90EF90DF90CF90BF90AF90B5
:101B90009F908F90089520E030E040E05FEBC70118
:101BA000B6010E94402F87FF11C020E030E04CE0DA
:101BB00052ECC701B6010E949F3018163CF470E049
:101BC00060E08DE00E94772910929004C090780424
:101BD000D0907904E0907A04F0907B0420E030E823
:101BE0004DE654E4C701B6010E94402F87FF12C0A2
:101BF00020E030E849E953E4C701B6010E949F3074
:101C000087FD08C06FEF70E08DE00E9477298FEFAD
:101C100080939004C0907804D0907904E0907A0486
:101C2000F0907B0420E030E849E953E4C701B601B5
:101C30000E94402F87FF12C020E030E042ED52E4C6
:101C4000C701B6010E949F3087FD08C067ED70E0B4
:101C50008DE00E94772987ED80939004C0907804EE
:101C6000D0907904E0907A04F0907B0420E030E09A
:101C700042ED52E4C701B6010E94402F87FF12C017
:101C800020E030E04CE852E4C701B6010E949F30EA
:101C900087FD08C068EC70E08DE00E94772988EC31
:101CA00080939004C0907804D0907904E0907A04F6
:101CB000F0907B0420E030E04CE852E4C701B6012C
:101CC0000E94402F87FF12C020E030E040EA51E43C
:101CD000C701B6010E949F3087FD08C06EEB70E01F
:101CE0008DE00E9477298EEB80939004C090780459
:101CF000D0907904E0907A04F0907B0420E030E00A
:101D000040EA51E4C701B6010E94402F87FF12C08C
:101D100020E030E040EA50E4C701B6010E949F3065
:101D200087FD08C064EB70E08DE00E94772984EBAA
:101D300080939004C0907804D0907904E0907A0465
:101D4000F0907B0420E030E040EA50E4C701B601A7
:101D50000E94402F87FF0BCF20E030E040E05FEB98
:101D6000C701B6010E949F3087FD01CF64EB70E090
:101D70008DE00E94772984EB80939004F8CE4F92F7
:101D80005F926F927F928F929F92AF92BF92CF920B
:101D9000DF92EF92FF92CF93DF93CDB7DEB76097DC
:101DA0000FB6F894DEBF0FBECDBF809117019091A2
:101DB0001801A0911901B0911A018D839E83AF8300
:101DC000B88720E030E040E251E4BC01CD010E9440
:101DD000A4304B015C01C0909B04D0909C04E09027
:101DE0009D04F0909E0420E030E040E251E4C70101
:101DF000B6010E94A4309B01AC01C501B4010E9450
:101E0000D32E69837A838B839C8360937004709351
:101E1000710480937204909373044090A3045090D3
:101E2000A4046090A5047090A60420E030E040E295
:101E300051E4C301B2010E94A4309B01AC01C50171
:101E4000B4010E94D32E6D877E878F87988B609315
:101E50006C0470936D0480936E0490936F04809172
:101E60009F049091A004A091A104B091A20489873D
:101E70009A87AB87BC8720E030E040E251E4BC01A8
:101E8000CD010E94A4309B01AC01C501B4010E94A8
:101E9000D32E4B015C018092680490926904A09259
:101EA0006A04B0926B0420E030E0A901C301B201E2
:101EB0000E94402F882309F40DC120E030E0A901E1
:101EC000C701B6010E94402F882309F403C1109274
:101ED0008A0480918F04813009F017C11092740434
:101EE0001092880420E030E040E85FE36D857E8555
:101EF0008F8598890E94402F87FF0CC020E030E03A
:101F000040E85FEB6D857E858F8598890E949F30C4
:101F100087FF14C020E030E040E85FE3C501B40172
:101F20000E94402F87FF16C020E030E040E85FEBC2
:101F3000C501B4010E949F3087FD0CC080917504DB
:101F40008F5F80937504109289048C3318F08CE3B2
:101F500080937504809175048C3309F044C020E0AF
:101F600030E040E85FE36D817E818F8198850E943B
:101F7000D42E69837A838B839C839B01AC01C3013C
:101F8000B2010E949F3087FF2BC020E030E040E884
:101F90005FE36D817E818F8198850E94D32E4B01F6
:101FA0005C01AC019B01C301B2010E94402F1816D5
:101FB000BCF429813A814B815C8169857A858B8566
:101FC0009C850E949F3087FF0BC0A5019401698505
:101FD0007A858B859C850E94402F18160CF492C040
:101FE00081E08093890490918D04998391110AC0B6
:101FF00020E030E048E152E4C701B6010E949F3082
:1020000087FF16C020E030E048E152E4C301B2018E
:102010000E949F3087FF0CC020E030E048E152E48E
:1020200069857A858B859C850E949F3087FDCFC00E
:1020300081E080938704A981A13051F420E030E051
:102040004EE152E4C701B6010E949F3087FF16C0DF
:1020500020E030E04AE152E4C301B2010E949F3027
:1020600087FF0CC020E030E04AE152E469857A85C0
:102070008B859C850E949F3087FDACC081E080935A
:10208000860482E30E948A2A80937704813009F0D3
:10209000A4C0109285048EE00E948A2A8093760460
:1020A000813009F0A0C08093840460960FB6F89444
:1020B000DEBF0FBECDBFDF91CF91FF90EF90DF90DD
:1020C000CF90BF90AF909F908F907F906F905F90D8
:1020D0004F90089581E080938A0420E030E0A901C8
:1020E000C301B2010E94402F882309F4F2CE20E000
:1020F00030E0A901C701B6010E94402F882309F4EE
:10210000E8CEE5CE109289046ECF823009F058C037
:10211000109275041092890420E030E040E85FE3FB
:1021200069817A818B819C810E94402F87FF18C032
:1021300020E030E040E85FEB69817A818B819C810F
:102140000E949F3087FD0CC0809174048F5F809344
:102150007404109288048C3318F08CE38093740418
:10216000809174048C3309F03ECF20E030E040E8E9
:102170005FE36D817E818F8198850E94D42E9B01C3
:10218000AC01C701B6010E949F3087FF12C020E05A
:1021900030E040E85FE36D817E818F8198850E9409
:1021A000D32E9B01AC01C701B6010E94402F181627
:1021B00024F081E08093880416CF1092880413CF16
:1021C000811111CF10927504109274040CCF1092EB
:1021D000870431CF1092860454CF81115CCF81E007
:1021E0008093850458CF811160CF109284045DCF15
:1021F000FC010E969183808393838283009709F07C
:102200009E5F9583848397838683108615860895C1
:10221000CF92DF92EF92FF92CF93DF9300D000D066
:102220001F92CDB7DEB7FC01892B39F084818F77FF
:102230008630B1F020F4843000F580E012C08A309E
:1022400021F08C3039F18830C1F780819181A281F1
:10225000B3818F3F9105A105B10519F010F0EDCFC5
:1022600080810F900F900F900F900F90DF91CF9182
:10227000FF90EF90DF90CF900895808191811D8233
:10228000BE016F5F7F4F0E947609CE0101960E94CA
:102290000811E7CFC080D180E280F38020E030E0F9
:1022A000A901C701B6010E949F3087FDC6CF20E07B
:1022B00030E04FE753E4C701B6010E94402F1816E3
:1022C0000CF4BBCFC701B6010E94BE2F862FC9CF29
:1022D000FC01808581110AC0A581B681CD010196DE
:1022E000968385838C91878381E080878781089599
:1022F000CF93DF93EC01CE010E9468118B303CF448
:1023000089304CF4882349F081E08C8310C08D30F3
:1023100011F08032C9F71886EECF8C8181110AC086
:1023200081E090E0C55BDF4F9983888380E0DF9197
:10233000CF91089582E090E0F5CFCF93DF9300D066
:1023400000D01F92CDB7DEB7FC0194819F77963005
:1023500091F030F4943020F560E070E0CB0111C0D2
:102360009A30B9F09C3049F19830B1F760817181B1
:102370008281938104C0608170E090E080E00E94DF
:10238000ED2F0F900F900F900F900F90DF91CF9146
:10239000089560817181828193810E94EF2FF1CF36
:1023A000808191811D82BE016F5F7F4F0E947609FF
:1023B000CE0101960E949D11E4CF608171818281DE
:1023C0009381DFCF1F93CF93DF93EC01162F0E94F1
:1023D0006811811306C0188681E0DF91CF911F91AB
:1023E000089580E0FACF9F92AF92BF92CF92DF9292
:1023F000EF92FF920F931F93CF93DF9300D000D003
:102400001F92CDB7DEB78C010E946811B82ED8019B
:1024100018961C92F12CE12C70EFA72EC8010E9497
:102420006811F8011086B81609F4CBC0811119C0E3
:10243000F801E55BFF4F82E090E09183808380E0CC
:102440000F900F900F900F900F90DF91CF911F91F1
:102450000F91FF90EF90DF90CF90BF90AF909F9043
:1024600008958C3509F0A2C0C8010E946811882324
:10247000F9F2EEE2F1E0853709F08CC0D801189648
:102480001C9264E0962ED12CC12CC8010E946811C8
:10249000882371F281344CF48053803148F0F80184
:1024A000E55BFF4F83E090E0C8CF8F7D8753F5CF8A
:1024B00054E0CC0CDD1C5A95E1F7C82AF8011086CF
:1024C0009A949110E2CFC601985D8115944020F452
:1024D000760123E0F222A2CFC6019C5D81159440D3
:1024E00078F5B3E0DB22C701982F8827990F990F61
:1024F0008C299D29B0E0A0E011961982282F2F7316
:1025000020682A8336E0B695A795979587953A95E2
:10251000D1F78032910530F5806C8B83FE013496C3
:102520008291882309F47ACFD8014D915C9111975B
:102530009A012F5F3F4F2D933C93DA018C93F0CF9C
:10254000C601B0E0A0E080389105A105B105A8F66C
:10255000D801ED91FC911197CF0101968D939C9339
:10256000C0825CCF282F2F7320682B8326E096959E
:1025700087952A95E1F78031910528F4806E8C8348
:10258000FE013596CDCF80688C83AD82FE013696F4
:10259000C7CF32969081992309F481CF8913F9CF5F
:1025A0008181882309F47BCFF8011086D801ED9151
:1025B000FC9111979F012F5F3F4F2D933C93808398
:1025C0002DCF81E03DCF80339CF08A3324F08F35CE
:1025D00024F08B3724F481E0089581344CF08B355E
:1025E000D4F393ED980F81E09230B0F380E008953A
:1025F0008B32B9F7F0CF9F92AF92BF92CF92DF921A
:10260000EF92FF920F931F93CF93DF93EC018B0117
:10261000E22E0E947811D82E811102C0F12C69C0DF
:10262000CE010E946811873209F49EC014F58232EF
:1026300009F49AC0CE010E946811E82E5E01FBE009
:10264000AF0EB11CF12C9A2CCB2C8E2D0E94E312D4
:10265000882309F4ABC08FE3F81609F4A7C01886E5
:10266000F394F501E1925F01CE010E946811E82E1A
:10267000ECCF8B35E1F08B37E9F6F8018481807877
:102680008062848311821082138212822E2D40E098
:10269000B801CE01DF91CF911F910F91FF90EF9084
:1026A000DF90CF90BF90AF909F900C940614F801EC
:1026B00084818078806484831182108213821282E4
:1026C000E11007C0C55BDF4F85E090E09983888308
:1026D000A5CF1886CE010E947811882309F49ECFD9
:1026E0006DE5CE010E94E211F82EEA94882371F084
:1026F000FD2C8F2DDF91CF911F910F91FF90EF90C7
:10270000DF90CF90BF90AF909F90089569857A85B4
:10271000C8010E94CE08009739F4C55BDF4F84E002
:1027200090E099838883E5CF2E2D40E0BC01CE0157
:102730000E94FB12882309F471CFCE010E94781108
:10274000882309F46BCF6DE5CE010E94E21181115F
:10275000CFCF6CE2CE010E94E2118111D7CFC55BD1
:10276000DF4F83E090E0B2CF888199819B838A8399
:10277000CE010E94F311F82E882309F44FCFE8818F
:10278000F9811082288139814A815B81C9010196D2
:1027900099838883F801848180788460848351835D
:1027A0004083241B350B33832283A3CFFE01EF0D1F
:1027B000F11D13868B85843781F4F801848180783C
:1027C0008660848381E08083F4E0FF1609F490CF73
:1027D000C55BDF4F82E090E079CF863641F4F801A7
:1027E00084818078866084831082F5E0EECF8E3617
:1027F00021F484E0F812ECCF7BCFB801892D9C2D19
:102800000E947609882309F4AACF72CFAF92BF92B3
:10281000CF92DF92FF920F931F93CF93DF932111FB
:1028200013C0EC01C55BDF4F85E090E0998388839E
:1028300010E0812FDF91CF911F910F91FF90DF90DA
:10284000CF90BF90AF900895F22E6B01EC011886E7
:102850000E947811182F882361F36DE7CE010E9442
:10286000E211182F8111E5CFFA94888199819B8319
:102870008A83CE010E946811873289F0823279F012
:10288000CE010E946811082F0E94E31281113BC003
:10289000C55BDF4F83E090E099838883CACFCE0188
:1028A0000E94F311882329F2CE010E947811882317
:1028B00009F4BFCF6AE3CE010E94E211882341F3FD
:1028C000E881F9811082A880B9806A817B81C60184
:1028D0000E949208BC01892B69F5F5011082AA803B
:1028E000BB808881998101969983888369857A85DF
:1028F000C6010E94CE08FC01892BB1F4C55BDF4FF5
:1029000084E090E0C9CF1886E881F981CF01019673
:10291000998388830083CE010E946811082F0E944A
:10292000E3128111F0CFC0CF84818F778483B78287
:10293000A682BF012F2D40E0CE010E94FB1288230A
:1029400009F477CFCE010E947811882309F471CF62
:102950006DE7CE010E94E21181110DC06CE2CE0143
:102960000E94E211882309F493CFCE010E947811CE
:1029700081117BCF5ECF182F5CCFFC01248125FD18
:102980000C94920890E080E00895CF93DF93EC01DF
:1029900088819981DC01ED91FC910280F381E02D29
:1029A00009952A813B81820F931F9B838A83DF9144
:1029B000CF910895FB0101900020E9F73197AF0115
:1029C000461B570B0C94C5148F929F92AF92BF92E7
:1029D000CF92DF92EF92FF920F931F93CF93DF93EB
:1029E000CDB7DEB766970FB6F894DEBF0FBECDBF8A
:1029F0006C018E01095E1F4F78018AE0882E912CB0
:102A0000A12CB12CCB01BA01A50194010E94AA32DC
:102A1000942F852F605DF80162938F01A901692FC2
:102A2000782F411551056105710561F7A7014E1B0E
:102A30005F0BBF01C6010E94C51466960FB6F894DD
:102A4000DEBF0FBECDBFDF91CF911F910F91FF90E1
:102A5000EF90DF90CF90BF90AF909F908F900895B0
:102A6000CF93DF93EC0188819981DC01ED91FC919A
:102A70000190F081E02D09952A813B81820F931FFF
:102A80009B838A83DF91CF9108951F93CF93DF9328
:102A9000EEE2F1E01281112379F032962181621386
:102AA000F9CFEC016CE50E943015612FCE01DF916A
:102AB000CF911F910C9430156111F9CF6FE371E044
:102AC000DF91CF911F910C94DA142F923F924F9285
:102AD0005F926F927F928F929F92AF92BF92CF92AE
:102AE000DF92EF92FF920F931F93CF93DF93CDB7B7
:102AF000DEB76C970FB6F894DEBF0FBECDBF8C016A
:102B00001B01DC0114968C9114978F77863009F4A1
:102B100092C268F58230A0F11296ED90FC90139766
:102B2000CC901196DC90843008F056C2A701B60113
:102B3000C1010E94C514F101828193816C960FB688
:102B4000F894DEBF0FBECDBFDF91CF911F910F91E3
:102B5000FF90EF90DF90CF90BF90AF909F908F90BD
:102B60007F906F905F904F903F902F9008958C30A2
:102B700069F160F4883009F459C28A3009F43FC21F
:102B800066E471E0C1010E94DA14E5C1803209F403
:102B9000ECC18034A9F76BE5C1010E943015F80142
:102BA000008111810115110509F4DAC1B101C801D3
:102BB0000E946515C8010E9484088C01892B09F4C4
:102BC000CFC16CE2C1010E943015ECCFF801C0808A
:102BD000D180E280F380A7019601C701B6010E946F
:102BE000402F8111CDCF20E030E0A901C701B6010F
:102BF0000E94402F882379F0A7019601C701B601F2
:102C00000E94D42E9B01AC01C701B6010E94402F47
:102C1000882309F4B5CF20E030E0A901C701B6014F
:102C20000E94402F87FF08C06DE2C1010E9430154D
:102C3000F7FAF094F7F8F09420E836E948E15BE41D
:102C4000C701B6010E949F3087FD81C074E1A72EA5
:102C5000B12C00E210E0188E1F8AF501E25CFE4FF5
:102C60002591359145915491C701B6010E949F303D
:102C700087FD13C0F501EA5DFE4F25913591459121
:102C80005491C701B6010E94A4306B017C012F89C9
:102C9000388D200F311F388F2F8B1595079534E015
:102CA000A31AB1088CEFA8168FEFB806B1F6552419
:102CB0005A9420E030E0A901C701B6010E949F307C
:102CC00018160CF04BC02CEA35EC47E257E3C7016D
:102CD000B6010E94402F18160CF440C0A52DB4E098
:102CE000AB02C0011124B12CA12CFC01E25FFE4F0C
:102CF0003F019C01225C3E4F49013FEF531671F1A9
:102D0000F301EA0DFB1D2591359145915491C701C1
:102D1000B6010E94402F87FF13C0F401EA0DFB1D8E
:102D20002591359145915491C701B6010E94A43077
:102D30006B017C018F89988D801B910B988F8F8BF5
:102D4000159507955A9494E0A91AB108D6CF00E2D8
:102D500010E055E0552E188E1F8AABCFC701B60183
:102D60000E94BE2F4B015C012B013C0106E080E478
:102D700092E4AFE0B0E0898F9A8FAB8FBC8F102FB9
:102D800001509AE04916510461047104C8F0698D3C
:102D90007A8D8B8D9C8D2AE030E040E050E00E94DF
:102DA000AA32298F3A8F4B8F5C8FC301B2012AE080
:102DB00030E040E050E00E94AA3229013A01DFCF22
:102DC000C501B4010E94ED2F9B01AC01C701B60102
:102DD0000E94D32E6B017C01698D7A8D8B8D9C8D29
:102DE0000E94ED2F9B01AC01C701B6010E94A430E7
:102DF0002B013C010E94BE2F6B017C010E94ED2F34
:102E00009B01AC01C301B2010E94D32E9B01AC0116
:102E10000E94D42E0E94BE2FC60ED71EE81EF91E99
:102E2000898D9A8DAB8DBC8DC816D906EA06FB0636
:102E3000D8F09FEF891A990AA90AB90AAF89B88D03
:102E4000AB2B39F1BAE08B169104A104B10408F15F
:102E5000EF89F88D3196F88FEF8BC12CD12C76014C
:102E6000812C912C540183942AE0422E512C612C08
:102E7000712CC701B601A30192010E94AA32672BEF
:102E8000682B692B51F4111644F469017A01115031
:102E9000F0CFC12CD12C7601E7CFB501A401C1013F
:102EA0000E94E414112371F14E01F1E18F0E911C87
:102EB000012F54019AE0492E512C612C712C0150A4
:102EC00068F0C701B601A30192010E94AA32605DB9
:102ED000D4016E934D0169017A01F1CF812F90E009
:102EE000BC0160957095F501E81BF90B31978EE2F6
:102EF000808344275527461B570B6A0D7B1DC10154
:102F00000E94C514EF89F88DEF2B29F165E6C10108
:102F10000E9430150F89188D17FF07C06DE2C1019F
:102F20000E943015119501951109FE0177969F01B8
:102F30008AE0E82EF12CC801B7010E949632805D2C
:102F400082938B01672BB9F7A9014E1B5F0BBF0161
:102F5000C1010E94C514D10112968D919C91EECDB4
:102F60006DE5C1010E943015F6CF6BE7C1010E94EB
:102F70003015F801008111810115110559F1D801B1
:102F80001696CC9016971796DC9062E2C1010E94CB
:102F900030157601F70161917F01662321F0C101AF
:102FA0000E944515F7CF62E2C1010E9430156AE325
:102FB000C1010E943015B101C8010E946515C80108
:102FC0000E9484088C01892B29F06CE2C1010E94C7
:102FD0003015D2CF6DE7C5CF62E2C1010E94301536
:102FE0008601E00EF11EE016F10639F0F80161915C
:102FF0008F01C1010E944515F6CF62E2B2CFCD909C
:10300000DD90ED90FC90B701A601F7FE0BC06DE2DC
:10301000C1010E94301544275527BA014C195D099A
:103020006E097F09C1010E94E41485CD4D915D9127
:103030006D917C91F7CF8C916BE471E0811102C0AE
:1030400060E571E0C1010E94DA1475CDFF920F9323
:103050001F93CF93DF93CDB7DEB7C652D4400FB6E0
:10306000F894DEBF0FBECDBF6BE273E0CE01835E8E
:103070009B4F0E94C522CE01815F9D4F0E94F81098
:10308000CE0101960E94F81080911B01813009F059
:103090007AC1AE01415F5D4F66E571E0CA010996F4
:1030A0000E943C09AE01415F5D4F70E060E00E940C
:1030B0000309FC01892B81F040919B0450919C04F1
:1030C00060919D0470919E04948190789C6094839B
:1030D0004083518362837383AE01415F5D4F66E538
:1030E00071E0CA0109960E943C09AE01415F5D4F43
:1030F00061E070E00E940309FC01892B81F040919E
:10310000A3045091A4046091A5047091A604948135
:1031100090789C6094834083518362837383AE0173
:10312000415F5D4F66E571E0CA0109960E943C0966
:10313000AE01415F5D4F62E070E00E940309FC0157
:10314000892B81F040919F045091A0046091A104CB
:103150007091A204948190789C6094834083518301
:1031600062837383AE01415F5D4F66E571E0CA0122
:1031700009960E943C09AE01415F5D4F63E070E03B
:103180000E940309FC01892B81F040919704509122
:1031900098046091990470919A04948190789C604D
:1031A000948340835183628373830FE012E00C0F9A
:1031B0001D1F075F1F4FAE01415F5D4F6BE571E063
:1031C000C8010E943C09AE01415F5D4F70E060E0C4
:1031D0000E940309BC01809191040E947508C05EA1
:1031E000DB4FF880C052D440AE01415F5D4F6FE5C8
:1031F00071E0C8010E943C09AE01415F5D4F70E083
:1032000060E00E940309BC018F2D0E947508CF5D0C
:10321000DB4FF880C152D440AE01415F5D4F6FE596
:1032200071E0C8010E943C09AE01415F5D4F61E061
:1032300070E00E940309BC018F2D0E947508AE0149
:10324000415F5D4F63E671E0C8010E943C09AE0139
:10325000415F5D4F70E060E00E940309BC01809116
:103260008A040E947508AE01415F5D4F63E671E01C
:10327000C8010E943C09AE01415F5D4F61E070E012
:103280000E940309BC01809189040E947508AE0167
:10329000415F5D4F63E671E0C8010E943C09AE01E9
:1032A000415F5D4F62E070E00E940309BC018091C4
:1032B00088040E947508AE01415F5D4F63E671E0CE
:1032C000C8010E943C09AE01415F5D4F63E070E0C0
:1032D0000E940309BC01809187040E947508AE0119
:1032E000415F5D4F63E671E0C8010E943C09AE0199
:1032F000415F5D4F64E070E00E940309BC01809172
:1033000086040E947508AE01415F5D4F63E671E07F
:10331000C8010E943C09AE01415F5D4F65E070E06D
:103320000E940309BC01809185040E947508AE01CA
:10333000415F5D4F63E671E0C8010E943C09AE0148
:10334000415F5D4F66E070E00E940309BC0180911F
:1033500077040E94750885E596E0CD5DDB4F998383
:103360008883C352D440CB5DDB4F19821882C5528B
:10337000D440BE016D5D7B4FC8010E94651585E597
:1033800096E00E94852DCA5DDB4F0FB6F894DEBF34
:103390000FBECDBFDF91CF911F910F91FF90089588
:1033A0008DE293E00E94420141E150E060E170E073
:1033B00085E293E00E94A41B20E048E166E086E0FD
:1033C00093E00E9447268AE592E00E94761D8EEAED
:1033D00091E00C94761D86E093E00C94EC254F92DE
:1033E0005F926F927F92AF92BF92CF92DF92EF92F5
:1033F000FF920F931F93CF93DF93CDB7DEB7CA55DC
:10340000D1400FB6F894DEBF0FBECDBF98E6C92EEF
:1034100093E0D92E8E01015F1F4FCE0101965C0112
:1034200024E7E22E28E0F22E86E093E00E94972522
:10343000181619060CF054C186E093E00E9401258D
:10344000E0916703AE2FB0E0A859BC4F8C93EF5FBB
:10345000E0936703F0E0E959FC4F80818A3021F75F
:103460001A8309831C830B838EE091E08C0F9D1FD0
:103470009E838D8398878F8319861E8688E6482EC3
:1034800083E0582EC25FDE4F488259826A827B8277
:10349000CE50D140CE5EDE4F1882C251D140CD5EBB
:1034A000DE4FD982C882C351D140CA5EDE4F188236
:1034B000C651D140C95EDE4FB982A882C751D14002
:1034C000C75ADE4F19821882C955D1402AE040E020
:1034D000BE01665F7F4FCE01825F9E4F0E94FB124E
:1034E000C75ADE4F88819981C955D140009719F09C
:1034F000E114F10461F4CB5EDE4F2881C551D14067
:10350000222319F02E8523FD02C0892B21F0E1141E
:10351000F10409F07DC067E671E0CE010A960E94D1
:10352000BD14009709F077C060E070E0CB016093B4
:103530001701709318018093190190931A0167E69F
:1035400071E0CE010A960E94BD14009709F074C084
:1035500090E080E00E9408118093160167E671E018
:10356000CE010A960E94BD14009709F071C090E048
:1035700080E00E94081180938F0467E671E0CE011D
:103580000A960E94BD14009709F06EC090E080E09A
:103590000E94081180938E0467E671E0CE010A96BE
:1035A0000E94BD14009709F06BC090E080E00E947B
:1035B000081180938D0467E671E0CE010A960E949F
:1035C000BD14009709F068C090E080E00E940811E7
:1035D00080938C0467E671E0CE010A960E94BD14C8
:1035E000009709F065C090E080E00E940811809388
:1035F0008B0467E671E0CE010A960E94BD14009725
:1036000009F062C090E080E00E9408118093670496
:103610001092670309CF6DE671E00E94BD14009718
:1036200009F482CF70E060E00E94B308009709F4CB
:103630007BCF0E949D117BCF6DE671E00E94BD148F
:10364000009709F485CF61E070E00E94B30882CF53
:1036500060E771E00E94BD14009709F488CF70E024
:1036600060E00E94B30885CF60E771E00E94BD145E
:10367000009709F48BCF61E070E00E94B30888CF17
:1036800060E771E00E94BD14009709F48ECF62E0FC
:1036900070E00E94B3088BCF60E771E00E94BD1418
:1036A000009709F491CF63E070E00E94B3088ECFD9
:1036B00060E771E00E94BD14009709F494CF64E0C4
:1036C00070E00E94B30891CF60E771E00E94BD14E2
:1036D000009709F497CF65E070E00E94B30894CF9B
:1036E000C65ADE4F0FB6F894DEBF0FBECDBFDF91D6
:1036F000CF911F910F91FF90EF90DF90CF90BF90EF
:10370000AF907F906F905F904F9008958AE592E020
:103710000E945E1E0E94EF1960E08AE10E945C2A0E
:103720000E94980B0E94330B0E946D0D0E94890C21
:103730000E94BF0E4AE050E061E070E088EB95E047
:103740000C94242E0C94861BFC017183608353839C
:1037500042830895CF92DF92EF92FF920F931F93CF
:10376000CF93DF93E62EF42E6901D0E0C0E010E0A5
:1037700000E00C151D05C4F461E08F2D0E945C2A49
:1037800063E070E080E090E00E9406298E2D0E94A8
:103790008A2ACC0FDD1FC80FD91F60E08F2D0E9431
:1037A0005C2A0F5F1F4FE5CFCE01DF91CF911F91B4
:1037B0000F91FF90EF90DF90CF9008951F93CF93DC
:1037C000DF93162FC42FD22F61E0842F0E94202A6E
:1037D00061E08D2F0E94202A61E08C2F0E945C2ADC
:1037E00061E08D2F0E945C2A60E08C2F0E945C2A91
:1037F00060E08D2F0E945C2A61E08D2F0E945C2A80
:1038000061E08C2F0E945C2A60E08D2F0E945C2A70
:10381000212F41E06D2F8C2F0E94B32A61E08D2F64
:103820000E945C2A60E08C2F0E94202A8C2F0E942C
:103830008A2A60E08D2F0E945C2A8C2FDF91CF9125
:103840001F910C948A2A1F93CF93DF93162F60E069
:10385000812F0E94202AC0EAD0E08EEA91E00E94E7
:103860005E1E62E070E080E090E00E940629812FF9
:103870000E948A2A892B11F0219779F7DF91CF9145
:103880001F910895CF92DF92EF92FF920F931F93B3
:10389000CF93DF937C01C62FD72ED42FC52E60E0A7
:1038A0008C2F0E94202A61E08D2F0E94202A28E080
:1038B00030E04D2F5C2D6C2F7D2DC7010E94AA1B7F
:1038C00000E0182F61E08C2F0E94202A61E08C2FED
:1038D0000E945C2A60E08C2F0E945C2A61E08D2FA0
:1038E0000E945C2A60E08D2F0E945C2A60E08C2F91
:1038F0000E94202A28E030E04D2F5C2D6C2F7D2D7A
:10390000C7010E94AA1B802B912BDF91CF911F91A1
:103910000F91FF90EF90DF90CF900895CF93DF93BA
:10392000D62FC42F61E08D2F0E94202A61E08C2FBA
:103930000E94202A61E08D2F0E945C2A61E08C2F7A
:103940000E945C2A60E08C2FDF91CF910C945C2A5E
:103950000F931F93CF93DF93EC012A813B81488122
:10396000598163E070E00E94DE1B68817981CE019D
:103970000E94231C4A815B8168817981CE010E946B
:10398000421C8C014A815B8168817981CE010E9451
:103990008E1CB801110F880B990B0E94EF2FDF913D
:1039A000CF911F910F9108950E94A81C0E94B72FDC
:1039B000072E000C880B990B0E94EF2F2AE037EDA1
:1039C00043E25CE30E94A43020E030E040E252E4B5
:1039D0000E94D32E08954F925F926F927F928F92A2
:1039E0009F92AF92BF92CF92DF92EF92FF92CF93CE
:1039F000DF93EC012A813B814881598165E070E0C9
:103A00000E94DE1B68817981CE010E94231C4A81BD
:103A10005B8168817981CE010E94421C7C014A81D0
:103A20005B8168817981CE010E948E1CB701FF0CF9
:103A3000880B990B0E94EF2F6B017C012DEB32E577
:103A400046E15DE30E94A43025EC3EEF42E050E405
:103A50000E94D32E4B015C0126EF34E246ED55EB7C
:103A6000C701B6010E94A430A70196010E94A430AC
:103A70009B01AC01C501B4010E94D42E4B015C0135
:103A8000CE010E94D41C2B013C012CEA35EC47EA04
:103A900058E3C701B6010E94A4302AE037ED43E2A3
:103AA0005CE30E94D42E6B017C0120E030E048EC06
:103AB00051E4C301B2010E94D32E9B01AC01C701A6
:103AC000B6010E94A430A50194010E94D42EDF917A
:103AD000CF91FF90EF90DF90CF90BF90AF909F90ED
:103AE0008F907F906F905F904F900895CF92DF926C
:103AF000EF92FF92CF93DF93EC010E94D4287E01D6
:103B00002CE8E20EF11CFE01B8966E019E01245CC9
:103B10003F4FD7011D927D0111921192D6016D93F5
:103B20007D938D939D936D01AF01425B5F4FDA01F1
:103B30001D921C92E217F30761F7C655DF4F1982F9
:103B40001882DF91CF91FF90EF90DF90CF90089592
:103B5000FC01E655FF4F208131812A30310564F4A4
:103B6000E258F10990E080E021913191232B31F06E
:103B700001968A309105C1F78FEF9FEF08954F921C
:103B80005F926F927F92AF92BF92CF92DF92EF924D
:103B9000FF920F931F93CF93DF93EC012A013B0118
:103BA000790168010E94A81D8C0197FD3FC0E114B6
:103BB000F104E1F15C01AA0CBB1CAA0CBB1CAC0E0D
:103BC000BD1EF50144AE55AE66AE77AEF801EE0F00
:103BD000FF1FEC0FFD1FF1A6E0A6EC59FF4FD182AD
:103BE000C082FE01E00FF11FE457FF4F81E08083A8
:103BF0000E94D428F5016083718382839383C65524
:103C0000DF4F88819981019699838883C801DF916C
:103C1000CF911F910F91FF90EF90DF90CF90BF90C9
:103C2000AF907F906F905F904F9008950FEF1FEFD0
:103C3000EDCF0F931F9310E000E00E94BF1D1F9176
:103C40000F910895CF93DF936A307105A4F5DC01DD
:103C5000A655BF4F2D913C9111972115310559F172
:103C6000FB01EE0FFF1FE80FF91F40A551A5452BE3
:103C700011F111A610A6EC01C60FD71FC457DF4FD4
:103C80001882EF01CA56DF4F19821882615F7F4F99
:103C9000660F771F660F771F680F791FEB01188279
:103CA00019821A821B82E858FF4F1182108221501C
:103CB00031092D933C93DF91CF9108952F923F923C
:103CC0004F925F926F927F928F929F92AF92BF922C
:103CD000CF92DF92EF92FF920F931F93CF93DF93D8
:103CE000EC010E94D428FE01B8964E01B12CA12C03
:103CF00041E050E022E0222E312C8F0102591F4F6B
:103D0000D8011D921C92208131813296232BA1F182
:103D1000D4010D911D912D913C911397DC96CD907E
:103D2000DD90ED90FC90DF972B013C01401A510A89
:103D3000620A730A4C145D046E047F04E8F00C0DF3
:103D40001D1D2E1D3F1D0D931D932D933C93139709
:103D5000950124573F4F2C0F3D1FD9012C91222351
:103D600059F022AD33AD21153105C1F59F0124591C
:103D70003F4FD9014D935C93BFEFAB1ABB0A24E0D0
:103D8000820E911CAAE0AA16B10409F0B6CF7E01FA
:103D9000B6E9EB0EF11C10E000E0F7018191919182
:103DA0007F0181309105C1F10297E9F10F5F1F4F4B
:103DB0000A30110591F7DF91CF911F910F91FF907C
:103DC000EF90DF90CF90BF90AF909F908F907F90BB
:103DD0006F905F904F903F902F9008956F01BEE4D9
:103DE000CB0ED11CD601ED90FC90E216F30624F622
:103DF0008F0104591F4FD8014D935C93BFEFEB1A0D
:103E0000FB0AD601ED92FC92E216F3060CF4B4CF55
:103E1000D8012D923C92B0CFE057F1090190F0818A
:103E2000E02D0995C3CFE057F1090190F081E02D15
:103E30000995B801CE010E94221EB8CF90E080E023
:103E400008958091DB049091DC04891B990B0895FF
:103E50009091DC048091DB042FEF3FEF981748F43A
:103E6000E92FF0E0E352FB4F208130E09F5F909319
:103E7000DC04C9010895E091DC048091DB04E817BB
:103E800030F4F0E0E352FB4F808190E008958FEF33
:103E90009FEF08950895CF93DF93EC01E091B30471
:103EA000F091B4043097F1F09091DC048091DB0440
:103EB0009817C0F090E0292F30E02617370754F408
:103EC000DE01A20FB31F4C9123523B4FD9014C93FB
:103ED0009F5FF1CF1092DC046093DB04CB01DF9194
:103EE000CF910994DF91CF910895E091B504F091BD
:103EF000B604309729F01092B9041092B8040994CE
:103F00000895CF93DF931F92CDB7DEB769832091D9
:103F1000B7042223F9F02091B804203258F021E0B0
:103F200030E0FC013383228390E080E00F90DF914A
:103F3000CF9108958091B904E82FF0E0E654FB4F4B
:103F4000998190838F5F8093B9048093B80481E056
:103F500090E0ECCF61E0CE0101960E943D21F7CFC9
:103F6000CF92DF92EF92FF920F931F93CF93DF9345
:103F70007C01CB018A012091B704222389F0EB0157
:103F80006B01C40ED51ECC15DD0569F06991D70112
:103F9000ED91FC910190F081E02DC7010995F3CFDF
:103FA000642F0E943D21C801DF91CF911F910F9195
:103FB000FF90EF90DF90CF9008951092DC04109264
:103FC000DB041092B9041092B8040E94832085E7A4
:103FD0009FE10E9469218BE49FE10C94642181E0C0
:103FE0008093B7046093DA041092B9041092B80475
:103FF00008950F93062F21E04091B8046AEB74E016
:104000008091DA040E94E6201092B9041092B8045C
:104010001092B7040F9108954F925F926F927F9222
:10402000AF92BF92CF92EF92FF920F931F93CF93D5
:10403000DF935C01F62ED42F28013901EE2019F10F
:104040000E94EF1FCE2DC43008F0C3E0C150B8F07D
:1040500028E0C29FC0011124A301920104C056951B
:104060004795379527958A95D2F7B901D501ED91F6
:10407000FC910190F081E02DC5010995E7CF60E04A
:10408000C5010E94F91F4D2FD13208F040E22C2DBE
:104090006DED74E08F2D0E949E201092DC048093C1
:1040A000DB04DF91CF911F910F91FF90EF90CF90A4
:1040B000BF90AF907F906F905F904F900895CF9298
:1040C000EF920F931F93C22EE12C00E010E09801B5
:1040D0000E940C201F910F91EF90CF90089561E006
:1040E0000C94F91FE7EAF4E01382128288EE93E061
:1040F000A0E0B0E084839583A683B78389E791E04D
:1041000091838083089510926A0581E08093680509
:104110001092670561E083E10E945C2A61E082E120
:104120000E945C2AE1E7F0E080818C7F808388E454
:104130008093700085E4809374000895413208F004
:1041400043C090916A059111FCCF91E090936A056C
:10415000209368052FEF2093FD0410924205240F51
:10416000209341059093690590916905880F892BEB
:104170008093690580916705813009F51092670584
:1041800080916905809373008091740083FDF8CF5E
:1041900085EC8093740080916A058130E1F3809111
:1041A0004205841710F440914205A3E4B5E0962F30
:1041B000FB018E2F891B841720F0842F089585EE34
:1041C000E8CF8D918193F5CF40E0F7CF0F93413247
:1041D00008F04BC090916A059111FCCF92E090934A
:1041E0006A05009368059FEF9093FD0410924205C5
:1041F00040934105362FA3E4B5E0FB019E2F931BAE
:10420000941770F11092690590916905880F892BB8
:104210008093690580916705813029F510926705C3
:1042200080916905809373008091740083FDF8CFBD
:1042300085EC80937400222321F080916A058230FE
:10424000D1F38091FD048F3F91F08091FD04803285
:1042500081F08091FD04803371F084E00F91089526
:1042600091919D93CBCF85EEE4CF81E0F7CF80E0B5
:10427000F5CF82E0F3CF83E0F1CF20911F05260F29
:104280003327331F21323105ECF420916A05FC01FC
:1042900090E080E0243069F082E00895A0911F054D
:1042A0002191AC014F5D5A4FA40FB52FB11D2C9336
:1042B0000196861798F380911F05680F60931F057C
:1042C00080E0089581E008959093640580936305EC
:1042D00008959093660580936505089585ED809314
:1042E00074008091740084FDFCCF10926A050895DB
:1042F00085EC8093740010926A0508951F920F92C6
:104300000FB60F9211242F933F934F935F936F93A8
:104310007F938F939F93AF93BF93EF93FF9380917E
:104320007100887F803609F44CC008F03FC08832A5
:1043300009F4A8C018F5803109F49CC0B8F48823AA
:1043400009F4F9C0883009F495C0FF91EF91BF914D
:10435000AF919F918F917F916F915F914F913F911D
:104360002F910F900FBE0F901F901895883109F470
:1043700089C0803251F78093FD0415C0803409F460
:104380009EC048F48033B9F38833F9F68093FD0476
:104390000E947821DACF803509F485C0883509F488
:1043A00096C0883491F60E946E21CFCF883909F4E7
:1043B0008CC038F5883729F050F4883611F08037F2
:1043C00021F683E080936A051092FE0457C0883876
:1043D00009F47BC0803919F0803809F0B6CF80919C
:1043E000FE04803208F071C0E091FE0481E08E0F7F
:1043F0008093FE0480917300F0E0E150FB4F8083D6
:104400003DC0803B39F0E0F4803A09F479C0883A45
:1044100009F09BCF84E080936A05109220051092EA
:104420001F05E0916505F0916605099580911F05CE
:1044300081110FC081E080931F051092210509C0F2
:10444000803C09F476C0883C09F473C0883B09F0CD
:104450007CCFE091200581E08E0F80932005F0E075
:10446000EF5DFA4F808180937300909120058091D9
:104470001F0529C0809169058093730085EC8093A6
:10448000740063CF9091420580914105981758F5CB
:10449000E091420581E08E0F80934205F0E0ED5BF4
:1044A000FA4F8081E9CFE091420581E08E0F809341
:1044B000420580917300F0E0ED5BFA4F80839091AC
:1044C0004205809141059817C8F285E8D8CFE09160
:1044D000420581E08E0F8093420580917300F0E0E9
:1044E000ED5BFA4F80838091680581115CCF81E09C
:1044F0008093670584EA8093740010926A0525CF43
:104500000E9478218091FE04803230F4E091FE0414
:10451000F0E0E150FB4F10826091FE0470E0E0910A
:104520006305F09164058FEF94E009951092FE0405
:104530000CCF85ECE0CF1092FD0435CFEF92FF92C7
:104540000F931F93CF93DF938C017B01FC0180813C
:104550009181009721F066E070E00E94D02E86E005
:1045600090E00E94CE2EEC01A70168E60E946D2328
:10457000F801D183C08361E0CE01DF91CF911F911B
:104580000F91FF90EF900C9495238F929F92AF9292
:10459000BF92CF92EF920F931F93CF93DF9300D0F0
:1045A00000D000D01F92CDB7DEB75C01FB011982AD
:1045B000E12C07E010E09E012F5F3F4F41E050E00B
:1045C000B901808191810E94762429812F77FA8117
:1045D0007B816D815E815F773F81822F90E044E037
:1045E000959587954A95E1F7982F990F990FC82EC1
:1045F000C91ACC0CC20E8F2F90E0E4E095958795F8
:10460000EA95E1F7982F990F990FE82EE91AEE0C29
:10461000EF0E872E912CF4E095948794FA95E1F7AC
:10462000882D880F880F082D081B000F070FA62F55
:10463000B0E014E0B595A7951A95E1F78A2F880F99
:10464000880F2A2F281B220F260FE52FF0E084E089
:10465000F595E7958A95E1F78E2F880F880F4E2FF5
:10466000481B440F450F832F90E054E095958795A4
:104670005A95E1F7982F990F990F682F691B660FCC
:10468000630F70E06053784FC5010E945923C50144
:1046900027960FB6F894DEBF0FBECDBFDF91CF9146
:1046A0001F910F91EF90CF90BF90AF909F908F9000
:1046B0000895CF92EF920F93FC01603D87E0780759
:1046C00010F0605D77406083418322830383E4823E
:1046D000C5820F91EF90CF900895FC0160835283C3
:1046E0004183138280E290E0958384830895CF9381
:1046F000DF93EC018B81882381F0688189819A8125
:104700000E94EF1F89819A810E946F2091E08111A0
:1047100090E0892FDF91CF91089561E0CE010E9452
:104720009523982F8111E9CFF4CF1F93CF93DF9377
:10473000EC01162F89819A810E94DD1F81E08B8315
:10474000112331F0CE01DF91CF911F910C9477238B
:1047500081E0DF91CF911F9108958F929F92BF9238
:10476000CF92DF92EF92FF920F931F93CF93DF933D
:10477000DA01AE0DBF1DEC01EC81FD81EA17FB07EC
:1047800010F490E021C0B22E6A014B01688189814A
:104790009A810E94EF1FE114F10419F589819A8131
:1047A000DC01ED91FC910280F381E02DA601B401C2
:1047B0000995C816D90629F76B2D89819A810E941F
:1047C000F91F91E08111DDCF892FDF91CF911F91EA
:1047D0000F91FF90EF90DF90CF90BF909F908F90C0
:1047E000089501151105D1F289819A81DC01ED91BD
:1047F000FC910280F381E02DA701B80109958E1587
:104800009F0509F0BECFCACFCF92DF92EF92FF9201
:104810000F931F93CF93DF937C016B018A01DC011F
:104820006C9111968D919C910E945F2080171106CA
:1048300091F4E6010C0D1D1DC017D107B1F0F70171
:1048400081819281DC01ED91FC910284F385E02D60
:1048500009958993F1CF80E0DF91CF911F910F915E
:10486000FF90EF90DF90CF90089581E0F5CF9F9279
:10487000AF92BF92CF92DF92EF92FF920F931F936E
:10488000CF93DF936C015B017A01922ED0E0C0E000
:10489000CE15DF05F0F4F6018481958187010C1BAC
:1048A0001D0B8017910708F48C01C701801B910B29
:1048B00020E0C817D90708F0292DA801B5016C0F11
:1048C0007D1FC6010E940424882321F0C00FD11F40
:1048D000DFCF81E0DF91CF911F910F91FF90EF909B
:1048E000DF90CF90BF90AF909F900895AF92BF920E
:1048F000CF92DF92EF92FF920F931F93CF93DF93AC
:10490000EC01690158012E2DF12CE12C10E000E0A2
:104910000E94AD23882381F021E0A501B601CE01DC
:10492000DF91CF911F910F91FF90EF90DF90CF908B
:10493000BF90AF900C94372480E0DF91CF911F910E
:104940000F91FF90EF90DF90CF90BF90AF900895C0
:10495000E091AD05F091AE05309709F44DC0A68504
:10496000B7858585968D91FF04C09C91892329F494
:1049700008959C91892309F03FC0A389B4899C9133
:104980008589809589238C93868997890197F1F78A
:10499000608D718DA685B785558538E020E0CB0107
:1049A0000197F1F7822F90E095958795282F4C91EC
:1049B000452309F02068315091F7868D81FD2095BF
:1049C00080916C0590E001968F73992730916B056B
:1049D000381799F0A0916C05B0E0A359BA4F2C9309
:1049E00080936C05828D938D0197F1F7A389B4892B
:1049F0008C919589892B8C930895868D8160868F03
:104A0000F1CF2091AD053091AE0528173907B9F4E3
:104A100090916B0580916C05981789F0E0916B057A
:104A2000F0E0E359FA4F808120916B0530E02F5F71
:104A30003F4F2F73332720936B0590E008958FEF3E
:104A40009FEF0895EF92FF920F931F93CF93DF9301
:104A5000DC015C96ED90FC905D97E114F10479F433
:104A600081E090E013969C938E93129790E080E003
:104A7000DF91CF911F910F91FF90EF900895519684
:104A8000ED91FC91529750968C915097982F90955C
:104A90000FB75E962C915E97122F127021FD6095D4
:104AA000F8942081112319F1282B2083E701219705
:104AB000F1F728E0462F50E0308160FF1AC0382B14
:104AC0003083E7012197F1F7BA0175956795215079
:104AD00089F7112381F08081892380830FBF5C9641
:104AE0008D919C910197F1F781E090E0C1CF29234E
:104AF000DCCF3923E5CF9081892BEFCF089520912A
:104B0000AD053091AE052817390771F490916B050A
:104B100080916C05981741F0E0916B05F0E0E35946
:104B2000FA4F808190E008958FEF9FEF08952091D4
:104B3000AD053091AE052817390761F480916C05F9
:104B400020916B0590E0805C9F4F821B91098F73D1
:104B50009927089590E080E00895E091AD05F091E7
:104B6000AE05E817F90769F4A389B4899C91858992
:104B7000809589238C931092AE051092AD0581E04B
:104B8000089580E00895CF93DF93EC018A8D9B8D8B
:104B9000892B01F18091AD059091AE058C179D0791
:104BA000C9F0009711F00E94AD258E8D8E7F8E8FFB
:104BB00010926C0510926B05D093AE05C093AD05B5
:104BC000EB89FC8980819D89892B808381E0DF913D
:104BD000CF91089580E0FBCF2BE831E0FC013183D9
:104BE00020830C94AD251F93CF93DF93EC01162FF8
:104BF0006E8D6695617081E06827812F0E945C2A26
:104C000061E0812F0E94202A812F110F990BFC0156
:104C1000E557FE4FE491E88BFC01E054FE4FE49130
:104C2000F0E0EE0FFF1FEB5FFD4F859194919A8BA3
:104C3000898BDF91CF911F9108951F93CF93DF93BD
:104C4000EC01162F60E0812F0E94202A8E8D81FDBD
:104C500004C061E0812F0E945C2A1C87812F110F04
:104C6000990BFC01E557FE4FE491ED87FC01E05400
:104C7000FE4FE491F0E0EE0FFF1FEB50FE4F8591E9
:104C800094919F878E87DF91CF911F9108951F93F5
:104C9000CF93DF93EC01162F1B821A8288EE93E0EC
:104CA000A0E0B0E08C839D83AE83BF838BE891E06E
:104CB000998388831F8A1E8A198E188E1B8E1A8EDE
:104CC0001D8E1C8E8E8D8E7F20FB81F98E8F642F22
:104CD000CE010E94F325612FCE01DF91CF911F916C
:104CE0000C941D26CF92DF92EF92FF920F931F93A9
:104CF000CF93DF93EC019A01AB011B8E1A8E198EB4
:104D0000188E1F8A1E8A60E079E08DE390E00E9491
:104D1000CC3269018901C90103972430310510F4AF
:104D200081E090E09D8F8C8F8C859CEF980F943064
:104D300020F08251843008F08FEF41E050E068EAC3
:104D400074E20E94DB26C601969587958431910511
:104D500058F143979F8B8E8BC6010597063011053E
:104D600010F481E090E0998F888F9601220F331F15
:104D70002C0D3D1D36952795369527952D303105FF
:104D8000B0F02C5031093B8F2A8F8C8D9D8D01976F
:104D9000F1F7CE01DF91CF911F910F91FF90EF902E
:104DA000DF90CF900C94C32581E090E0D3CF21E039
:104DB00030E0E9CF0895883008F5E82FF0E0EE0FF5
:104DC000FF1FE45EFE4F718360838150873068F47B
:104DD000E82FF0E0E251F94D0C94EB32FF260C275E
:104DE0001A2728272F273A27462780916A008C7F89
:104DF000482B40936A0089B7816089BF08958091EC
:104E00006A00837F440F551F440F551F482B409362
:104E10006A0089B78260F1CF80916A008F7C74E06C
:104E2000440F551F7A95E1F7482B40936A0089B7E4
:104E30008460E3CF80916A008F7366E0440F551F52
:104E40006A95E1F7482B40936A0089B78860D5CF0F
:104E50008AB78C7F482B4ABF89B78061CECF8AB78B
:104E6000837F440F551F440F551F482B4ABF89B7F6
:104E70008062C3CF8AB78F7C24E0440F551F2A95E8
:104E8000E1F7482B4ABF89B78064B7CF8AB78F73E1
:104E900096E0440F551F9A95E1F7482B4ABF89B712
:104EA0008068ABCF1F920F920FB60F9211242F93F1
:104EB0003F934F935F936F937F938F939F93AF93A2
:104EC000BF93EF93FF93E0911C01F0911D010995B1
:104ED000FF91EF91BF91AF919F918F917F916F91D2
:104EE0005F914F913F912F910F900FBE0F901F90A8
:104EF00018951F920F920FB60F9211242F933F9384
:104F00004F935F936F937F938F939F93AF93BF93D1
:104F1000EF93FF93E0911E01F0911F010995FF911E
:104F2000EF91BF91AF919F918F917F916F915F9121
:104F30004F913F912F910F900FBE0F901F9018959A
:104F40001F920F920FB60F9211242F933F934F93FE
:104F50005F936F937F938F939F93AF93BF93EF93E1
:104F6000FF93E0912001F09121010995FF91EF91CC
:104F7000BF91AF919F918F917F916F915F914F9171
:104F80003F912F910F900FBE0F901F9018951F9279
:104F90000F920FB60F9211242F933F934F935F936D
:104FA0006F937F938F939F93AF93BF93EF93FF93F1
:104FB000E0912201F09123010995FF91EF91BF91BA
:104FC000AF919F918F917F916F915F914F913F91A1
:104FD0002F910F900FBE0F901F9018951F920F9258
:104FE0000FB60F9211242F933F934F935F936F93BC
:104FF0007F938F939F93AF93BF93EF93FF93E09132
:105000002401F09125010995FF91EF91BF91AF9196
:105010009F918F917F916F915F914F913F912F91D0
:105020000F900FBE0F901F9018951F920F920FB602
:105030000F9211242F933F934F935F936F937F931E
:105040008F939F93AF93BF93EF93FF93E0912601CC
:10505000F09127010995FF91EF91BF91AF919F9139
:105060008F917F916F915F914F913F912F910F9011
:105070000FBE0F901F9018951F920F920FB60F92B0
:1050800011242F933F934F935F936F937F938F934D
:105090009F93AF93BF93EF93FF93E0912801F0911B
:1050A00029010995FF91EF91BF91AF919F918F9148
:1050B0007F916F915F914F913F912F910F900FBE14
:1050C0000F901F9018951F920F920FB60F921124F8
:1050D0002F933F934F935F936F937F938F939F9300
:1050E000AF93BF93EF93FF93E0912A01F0912B01CF
:1050F0000995FF91EF91BF91AF919F918F917F9112
:105100006F915F914F913F912F910F900FBE0F9034
:105110001F9018951F920F920FB60F9211242F9384
:105120003F938F939F93AF93BF938091B4059091DA
:10513000B505A091B605B091B7053091B30523E050
:10514000230F2D3768F126E8230F0296A11DB11D0C
:105150002093B3058093B4059093B505A093B6054D
:10516000B093B7058091AF059091B005A091B105BE
:10517000B091B2050196A11DB11D8093AF0590932A
:10518000B005A093B105B093B205BF91AF919F91C7
:105190008F913F912F910F900FBE0F901F901895F8
:1051A0000196A11DB11DD4CF2FB7F8946091B4051D
:1051B0007091B5058091B6059091B7052FBF089500
:1051C0003FB7F8948091AF059091B005A091B105DB
:1051D000B091B20522B706B600FE05C02F3F19F008
:1051E0000196A11DB11D3FBFBA2FA92F982F882767
:1051F000BC01CD01620F711D811D911D42E0660F42
:10520000771F881F991F4A95D1F708958F929F9213
:10521000AF92BF92CF92DF92EF92FF926B017C012F
:105220000E94E0284B015C01C114D104E104F104A7
:10523000E9F00E94D22E0E94E028681979098A09B3
:105240009B09683E73408105910570F321E0C21A05
:10525000D108E108F10888EE880E83E0981EA11CB1
:10526000B11CC114D104E104F10429F7FF90EF90BF
:10527000DF90CF90BF90AF909F908F9008957894DB
:1052800083B78C6483BF87B7816087BF82E08EBDA0
:105290008EB581608EBD8FB581608FBD85B5846010
:1052A00085BD85B5806485BDEAE8F0E080818360D6
:1052B0008083EBE8F0E080818160808387E886B9B5
:1052C0001AB80895883020F08C3208F48CE28D52A0
:1052D00020912C0190E4299F900111248770822B4A
:1052E00087B9369A3699FECF84B195B108951F9348
:1052F000CF93DF93182FEB0161E00E94202A2097C3
:1053000039F460E0812FDF91CF911F910C945C2ADA
:10531000CF3FD10511F461E0F5CFE12FF0E0EA5A7B
:10532000FE4FE491E150EC3008F050C0F0E0E5565B
:10533000F64D0C94EB32A729A729E629AF29B52908
:10534000BB29C329E629E629C829D229DC2983B744
:10535000806283BFC1BFDF91CF911F9108958FB548
:1053600080688FBDDBBDCABDF6CF8FB580628FBDB3
:10537000D9BDC8BDF0CF8FB588608FBDD0937900FF
:10538000C0937800E8CF85B5806285BDC3BDE3CF0B
:1053900080918B00806880938B00D0938700C093AE
:1053A0008600D9CF80918B00806280938B00D09350
:1053B0008500C0938400CFCF80918B00886080935C
:1053C0008B00D0938300C0938200C5CFC038D10535
:1053D0000CF0A1CF96CF81508C3088F5E82FF0E00B
:1053E000EC50F64D0C94EB321C2A1C2A1F2A002A82
:1053F000042A072A0A2A1F2A1F2A0E2A142A182AD0
:105400008FB58F778FBD08958FB58F7DFBCF8FB50B
:10541000877FF8CF85B58F7D85BD089580918B00FE
:105420008F7780938B00089580918B008F7DF9CFCB
:1054300080918B00877FF5CF83B78F7D83BF0895E1
:10544000CF93DF9390E0FC01E557FE4F2491805409
:105450009E4FFC0184918823C9F090E0880F991F2A
:10546000FC01EB5EFD4FA591B491FC01EB5FFD4F9C
:10547000C591D49161110DC09FB7F8948C9120957E
:1054800082238C938881282328839FBFDF91CF912B
:105490000895623051F49FB7F8943C91822F809523
:1054A00083238C93E8812E2BEFCF8FB7F894EC9168
:1054B0002E2B2C938FBFEACF1F93CF93DF93282FF0
:1054C00030E0F901EA5AFE4F8491F901E557FE4FA9
:1054D000D491F901E054FE4FC491CC23A9F0162FCA
:1054E00081110E94EB29EC2FF0E0EE0FFF1FEB5F24
:1054F000FD4FA591B4918FB7F894EC91111108C0AC
:10550000D095DE23DC938FBFDF91CF911F9108955B
:10551000DE2BF8CFCF93DF93282F30E0F901EA5A42
:10552000FE4F8491F901E557FE4FD491F901E05403
:10553000FE4FC491CC23A1F081110E94EB29EC2FE6
:10554000F0E0EE0FFF1FEB50FE4FA591B491EC91F0
:10555000ED2381E090E009F480E0DF91CF910895A0
:1055600080E090E0FACFBF92CF92DF92EF92FF926D
:105570000F931F93CF93DF93C82ED62EB42ED0E077
:10558000C0E0022F10E087E0E82EF12CB8018C2F4C
:10559000BB2019F0C7018C1B9D0B02C07595679548
:1055A0008A95E2F761708C2D0E945C2A61E08D2D56
:1055B0000E945C2A60E08D2D0E945C2A2196C830F2
:1055C000D10521F7DF91CF911F910F91FF90EF90BF
:1055D000DF90CF90BF900895FC01918D228D892F8F
:1055E00090E0805C9F4F821B91098F7399270895EB
:1055F000FC01918D828D981731F0828DE80FF11D9D
:10560000858D90E008958FEF9FEF0895FC01918DB7
:10561000828D981761F0A28DAE0FBF2FB11D5D96E0
:105620008C91928D9F5F9F73928F90E008958FEF82
:105630009FEF0895FC01538D448D252F30E0842F7A
:1056400090E0821B930B541710F0CF9608950197AA
:1056500008958CE79CE2892B49F080E090E0892B4B
:1056600029F00E947C2C81110E9400008BE09DE2B9
:10567000892B49F080E090E0892B29F00E940B2DC6
:1056800081110C9400000895FC01A48DA80FB92F7E
:10569000B11DA35ABF4F2C91848D90E001968F735A
:1056A0009927848FA689B7892C93A089B1898C9179
:1056B00080648C93938D848D981306C00288F3893F
:1056C000E02D80818F7D80830895CF93DF93EC015F
:1056D000888D8823B9F0AA89BB89E889F9898C91DA
:1056E00085FD03C0808186FD0DC00FB607FCF7CF96
:1056F0008C9185FFF2CF808185FFEDCFCE010E9496
:10570000442BE9CFDF91CF910895EF92FF920F9351
:105710001F93CF93DF93EC0181E0888F9B8D8C8D5D
:10572000981316C0E889F989808185FF11C0EE8938
:10573000FF896083E889F98980818064808381E0C2
:1057400090E0DF91CF911F910F91FF90EF9008951E
:10575000F62E0B8D10E00F5F1F4F0F731127E02EF9
:105760008C8D8E110CC00FB607FCFACFE889F98931
:10577000808185FFF5CFCE010E94442BF1CFEB8DC8
:10578000EC0FFD2FF11DE35AFF4FF0820B8FEA89DA
:10579000FB8980818062D2CFCF92DF92EF92FF921D
:1057A0001F93CF93DF93EC016A017B01122FE889ED
:1057B000F98982E08083C11481EED806E104F10406
:1057C000A1F060E079E08DE390E0A70196010E94EE
:1057D000AA3221503109410951095695479537950B
:1057E0002795211580E1380798F0E889F98910821A
:1057F00060E874E88EE190E0A70196010E94AA3269
:1058000021503109410951095695479537952795FA
:10581000EC85FD853083EE85FF852083188EEC892D
:10582000FD891083EA89FB89808188698083EA8900
:10583000FB8980818F7D8083DF91CF911F91FF90C5
:10584000EF90DF90CF9008951F920F920FB60F92B6
:1058500011242F938F939F93EF93FF93E091C805AB
:10586000F091C9058081E091CE05F091CF0582FDD0
:105870001BC090818091D1058F5F8F732091D205DD
:10588000821741F0E091D105F0E0E854FA4F958F8E
:105890008093D105FF91EF919F918F912F910F9060
:1058A0000FBE0F901F9018958081F4CF1F920F921A
:1058B0000FB60F9211242F933F934F935F936F93E3
:1058C0007F938F939F93AF93BF93EF93FF9388EB57
:1058D00095E00E94442BFF91EF91BF91AF919F9172
:1058E0008F917F916F915F914F913F912F910F9089
:1058F0000FBE0F901F90189588EB95E00E94EC2A40
:1059000021E0892B09F420E0822F0895E8EBF5E0EF
:105910001382128288EE93E0A0E0B0E08483958346
:10592000A683B7838DE991E09183808380E990E03D
:105930009587848789E290E0978786878BE290E05D
:10594000918B808B8AE290E0938B828B85E990E04B
:10595000958B848B8CE290E0978B868B118E128EC8
:10596000138E148E08951F920F920FB60F9211246A
:105970002F938F939F93EF93FF93E0916506F091A0
:1059800066068081E0916B06F0916C0682FD1BC07B
:10599000908180916E068F5F8F7320916F068217C2
:1059A00041F0E0916E06F0E0EB5AF94F958F80934D
:1059B0006E06FF91EF919F918F912F910F900FBEE7
:1059C0000F901F9018958081F4CF1F920F920FB601
:1059D0000F9211242F933F934F935F936F937F9375
:1059E0008F939F93AF93BF93EF93FF9385E596E0DB
:1059F0000E94442BFF91EF91BF91AF919F918F91A6
:105A00007F916F915F914F913F912F910F900FBEBA
:105A10000F901F90189585E596E00E94EC2A21E0F2
:105A2000892B09F420E0822F0895E5E5F6E0138242
:105A3000128288EE93E0A0E0B0E084839583A68391
:105A4000B7838DE991E09183808388E990E0958721
:105A5000848789E990E0978786878BE990E0918B2E
:105A6000808B8AE990E0938B828B8DE990E0958B17
:105A7000848B8CE990E0978B868B118E128E138E1F
:105A8000148E0895AF92BF92CF92DF92EF92FF9261
:105A90000F931F93CF93DF936C017B018B01040F56
:105AA000151FEB015E01AE18BF08C017D10759F0F2
:105AB0006991D601ED91FC910190F081E02DC60134
:105AC0000995892B79F7C501DF91CF911F910F912E
:105AD000FF90EF90DF90CF90BF90AF900895FB01C3
