:100000000C9415010C943D010C943D010C94E604F4
:100010000C943D010C943D010C943D010C943D0168
:100020000C943D010C94B42B0C943D010C943D01B7
:100030000C943D010C943D010C943D010C943D0148
:100040000C945B250C943D010C9410280C944228D0
:100050000C943D010C943D010C943D010C943D0128
:100060000C943D010C943D010C943D010C943D0118
:100070000C943D010C943D010C949F280C94D128C4
:100080000C943D010C943D010C943D010000803F17
:10009000CDCCCC3D6F12833A95BFD6337D1D9026D3
:1000A000B3CE010CCDCCCC3D0AD7233C17B7D13809
:1000B00077CC2B329595E6241FB14F0A00002041E2
:1000C0000000C84200401C4620BCBE4CCA1B0E5A51
:1000D000AEC59D747E306D79335B5F707F7B771F1B
:1000E0000D3D4F4700000000000000000000000030
:1000F0000000000000000000000000000000000000
:10010000800180007E306D79335B5F707F7B000003
:100110000000000000771F0D3D4F47003700000032
:100120000E0000006700000000000000000000005A
:100130000000000800771F0D3D4F4700370000000A
:100140000E00151D67000000000000000000000008
:10015000000000000000000A0B0C0000000000007E
:10016000010405060000000000000000000000007F
:10017000000000000000000000000000000000007F
:1001800000000000000000000001020408102040F0
:1001900080010204081020408008100102040810A9
:1001A00020408001020102040810204080048040A9
:1001B00020100804020101020408102040800505F7
:1001C00005050505050502020202020202020707F3
:1001D00004040404040404040707030303030303DF
:1001E00003030701010101010101010606060606DC
:1001F00006060600003900360033003000210020DA
:1002000000630000003B003800350032002300622C
:1002100000650000003A0037003400310022006120
:1002200000640002821F7228012911241FBECFEF33
:10023000D0E1DEBFCDBF11E0A0E0B1E0E6E7FEE532
:1002400002C005900D92AE38B107D9F727E0AEE8AD
:10025000B1E001C01D92A33CB207E1F711E0C5E196
:10026000D1E004C02197FE010E94102FC231D107B6
:10027000C9F70E94522C0C94392F0C940000089559
:100280000895FB01309759F0948190789860948399
:1002900090E0B0E0A0E080839183A283B3830895CF
:1002A000FC012581222339F0F8E02F02900111246E
:1002B000820F931F089590E080E008950F931F939D
:1002C000CF93DF93D0E0C0E06115710591F08B0111
:1002D000FC01C081D181209761F06E817F81C801CE
:1002E0000E94302F892B29F0CE010E945001EC0191
:1002F000F2CFCE01DF91CF911F910F910895FC01B4
:10030000248126FF14C080819181009791F06115AE
:10031000710579F0FC01258161507109222339F0C2
:10032000F8E02F0290011124820F931FF0CF90E08C
:1003300080E00895CF93DF93DC01EB01EC81FD8138
:100340008A819B810896E817F90740F481E0888745
:10035000F0E0E0E0CF01DF91CF9108953897FD8381
:10036000EC833097B9F31296CD91DC9113972097D7
:1003700091F0CF018C1B9D0B23E0959587952A95D5
:10038000E1F78D831396FC93EE93129715821482F6
:1003900017821682DFCF1196FC93EE93F3CFEF9284
:1003A000FF920F931F93CF93DF93EC018B017A01A0
:1003B000892B29F18C81982F9F7739F4807880647C
:1003C0008C83198218821B821A828C8186FF17C047
:1003D00088819981009741F00115110591F00E94E3
:1003E000500101501109F6CF015011090E3F2FEFB6
:1003F000120739F0B701CE010E949A01F5CF90E0C3
:1004000080E0DF91CF911F910F91FF90EF900895C1
:10041000EF92FF920F931F93CF93DF937C018B0199
:10042000BA010E949A01EC01892B49F480E090E026
:10043000DF91CF911F910F91FF90EF9008950115DB
:10044000110591F18FE391E0892B29F08C818F7751
:100450008C831F830E83CE01EBCF8C010115110518
:1004600031F0C8010E945001C817D907B1F7CE0179
:100470000E9450010115110599F020E0009741F00C
:100480009C01201B310B43E0359527954A95E1F7F8
:10049000F8012583892B51F6F70113830283C6CF18
:1004A000F70191838083F6CFF70100811181D6CFC8
:1004B000EF92FF920F931F93CF93DF930097A9F0D2
:1004C0006115710591F07A018B01EC010E945E01CA
:1004D000009769F4A701B801CE01DF91CF911F9178
:1004E0000F91FF90EF900C94080280E090E0DF9174
:1004F000CF911F910F91FF90EF9008954F925F92CF
:100500006F927F928F929F92AF92BF92CF92DF9223
:10051000EF92FF920F931F93CF93DF93EC018B0128
:1005200088818B32C9F18D32C1F52196FF24F39475
:10053000888190ED980F9A3018F08E3209F04DC1F5
:1005400060E070E0CB01FE012191A0ED8A2E820EC9
:1005500039E0381520F16A3949E97407840749E11F
:10056000940738F5AAE0B0E09B01AC010E94162F79
:10057000912CB12CA12C240135014094509460940D
:100580007094461657066806790698F0680D791D2E
:100590008A1D9B1DEF01D7CF2196F12CC9CF2111C8
:1005A00008C0FF20F1F161307105810550E8950721
:1005B000A0F0E12CEAE08E2E912CA12CB12C61153B
:1005C0007105F0E88F079105C0F1A50194010E9423
:1005D000CF2ECA01B901E394F2CFF801248120782B
:1005E0002A6024839B01AC0188279927DC01821BA8
:1005F000930BA40BB50B80839183A283B3838F2DC0
:10060000DF91CF911F910F91FF90EF90DF90CF90EE
:10061000BF90AF909F908F907F906F905F904F9022
:100620000895F801248120782860248360837183F1
:1006300082839383FF24F394E2CFFE01299130ED6E
:10064000320F3A3010F4E394F8CF2E32F1F4EF0188
:100650002196FE012196208150EDD52ED20E29E063
:100660002D1598F06C3C3CEC73073CE0830791053A
:1006700080F7AAE0B0E09B01AC010E94162F6D0D3F
:10068000711D811D911DEA94E4CF20812F7DD0E062
:10069000C0E0253409F05DC021812D32D9F53296B4
:1006A000CC24C394DF01D0E0C0E02E2D0E2C000C32
:1006B000330B4AE0B42EFD01DD9040ED4D0D4A3084
:1006C00008F042C0BC9EA001BD9E500D1124CD2D4E
:1006D000DD0CDD0BE097C40FD51FAE01420F531F99
:1006E0004732510544F3F8018481CC20D1F040E039
:1006F00050E060E070E8F11003C040E050E0BA0163
:1007000080788C60F8018483408351836283738393
:10071000FC2C75CF2B3219F03196C12CC3CF3296F9
:10072000FCCF40E050E060E87FEFF11004C040E013
:1007300050E060E87FE780788C60F8018483408334
:1007400051836283738376CFCC2019F0D195C19504
:10075000D1092081211141C0CE0DD11DE7FCDA95D0
:100760000E947B2D1C161D0604F5E12CC0FF0CC059
:1007700024E0E29EF0011124E454FF4F25913591CD
:10078000459154910E94322ED595C795E3942097B8
:1007900069F7F1109058F801248120782C602483A7
:1007A000608371838283938345CFD195C195D109AD
:1007B000E12C209771F3C0FF0CC044E0E49EF001EF
:1007C0001124EC55FF4F25913591459154910E948C
:1007D000322ED595C795E394ECCFF12C10CFCF9363
:1007E000DF9380E00E94D42526E040E855E260E0F7
:1007F00070E088E197E00E94B82726E040E855E2E3
:1008000060E070E08BE796E00E94B82724E23EE1CA
:1008100048EE53E060E070E082E993E00E94B2228B
:1008200042E050E070E060E08AE196E00E943C2403
:1008300042E050E061E070E08AE196E00E943C24F2
:1008400042E050E062E070E08AE196E00E943C24E1
:1008500042E050E063E070E08AE196E00E943C24D0
:1008600070E060E08AE196E00E944E2461E070E072
:100870008AE196E00E944E2462E070E08AE196E010
:100880000E944E2463E070E08AE196E00E944E24CC
:1008900040E070E060E08AE196E00E94182440E0C9
:1008A00061E070E08AE196E00E94182440E062E096
:1008B00070E08AE196E00E94182460E08FE20E94D6
:1008C0000C2660E08EE20E940C2660E08DE20E9421
:1008D0000C2660E083E00E940C2660E084E00E9429
:1008E0000C2660E085E00E940C2660E08BE00E9410
:1008F0000C2660E08CE00E940C2660E08DE00E94F7
:100900000C2660E086E00E940C2660E089E10E94EF
:100910000C2660E082E00E940C2660E088E10E94E4
:100920000C2661E082E30E940C2661E081E30E94D4
:100930000C2661E080E30E940C2661E087E00E94C3
:100940000C2661E088E00E940C2661E080E20E94B3
:100950000C2661E08DE10E940C2661E08EE10E9490
:100960000C2661E08CE10E940C2661E08FE10E9480
:100970000C2661E08BE10E940C2661E082E30E947C
:10098000482661E081E30E94482661E080E30E94FE
:10099000482661E087E00E94482661E088E00E94E6
:1009A0004826C2E1D1E08881229661E00E940C26AF
:1009B00081E0C632D807B9F7F89480E380936A00E3
:1009C00084E089BF7894DF91CF9108951F920F92B0
:1009D0000FB60F92112410926E040F900FBE0F905D
:1009E0001F901895CF92DF92EF92FF9280916A0448
:1009F000813009F01DC18091E5059091E605892BB4
:100A000009F016C1809195048093A3048CE00E94A4
:100A10007626809395049091A304913009F066C0E6
:100A2000811167C010926F0420E030E040E85FE37E
:100A30006091060170910701809108019091090170
:100A40000E94622C6B017C0120E030E044EB52E418
:100A50000E942D2E1816ECF1C0920601D0920701CB
:100A6000E0920801F09209010E94A525C090780447
:100A7000D0907904E0907A04F0907B046C197D09A1
:100A80008E099F09613D77408105910590F12DEC1C
:100A90003CEC4CE45EE360910601709107018091AB
:100AA0000801909109010E94622C6B017C0120E0F9
:100AB00030E044EB52E40E942D2E18160CF48DC049
:100AC000C0920601D0920701E0920801F09209015C
:100AD00010C080E090E0A4EBB2E480930601909314
:100AE0000701A0930801B0930901BECF882309F440
:100AF000BBCF80919504813051F40E94A52560936D
:100B000078047093790480937A0490937B048091A5
:100B100094048093A2048BE00E9476268093940430
:100B20009091A204913009F072C0811173C01092AB
:100B30006F0420E030E040E85FE3609106017091CF
:100B4000070180910801909109010E94612C6B01BD
:100B50007C0120E030E040EF51E40E94CE2C87FD84
:100B600049C0C0920601D0920701E0920801F092BC
:100B700009010E94A525C0907404D0907504E090EE
:100B80007604F09077046C197D098E099F09613D08
:100B9000774081059105F0F12DEC3CEC4CE45EE3EF
:100BA00060910601709107018091080190910901FF
:100BB0000E94612C6B017C0120E030E040EF51E4A9
:100BC0000E94CE2C87FDCBC0C0920601D0920701B7
:100BD000E0920801F09209011DC080E090E0A4EBD2
:100BE000B2E48093060190930701A0930801B093AB
:100BF00009017FCF80E090E0A0EFB1E4809306018F
:100C000090930701A0930801B0930901B2CF882304
:100C100009F4AFCF80919404813051F40E94A5254E
:100C200060937404709375048093760490937704B2
:100C300080916C04813009F07EC18091E50590912E
:100C4000E605892B09F077C1809199048093A70468
:100C50008FE20E947626809399049091A7049130A8
:100C600009F09BC081119CC010926F042DEC3CECEC
:100C70004CEC5DE360910E0170910F0180911001C9
:100C8000909111010E94612C60930E0170930F01ED
:100C900080931001909311012091E9053091EA05AC
:100CA0002130310509F068C020E030E044E152E431
:100CB0000E94CE2C181664F080E090E0A4E1B2E42B
:100CC00080930E0190930F01A0931001B093110136
:100CD0000E94A525C0908404D0908504E0908604ED
:100CE000F09087046C197D098E099F09613D77405A
:100CF0008105910508F454C02AE037ED43EA5CE32E
:100D000060910E0170910F0180911001909111017D
:100D10000E94612C60930E0170930F01809310016B
:100D2000909311012091E9053091EA0521303105B8
:100D300009F0CFC020E030E044E152E40E94CE2C24
:100D4000181674F180E090E0A4E1B2E480930E0103
:100D500090930F01A0931001B093110121C080E086
:100D600090E0A0EFB1E48093060190930701A09377
:100D70000801B09309014ECF232B09F0A9CF20E041
:100D800030E040EA51E40E94CE2C18160CF4A0CFBB
:100D900080E090E0A0EAB1E493CF882309F498CFF3
:100DA00080919904813051F40E94A52560938404B8
:100DB00070938504809386049093870480919804AF
:100DC0008093A6048EE20E947626809398049091E8
:100DD000A604913009F09EC081119FC010926F044B
:100DE0002DEC3CEC4CEC5DE360910E0170910F0139
:100DF00080911001909111010E94622C60930E016C
:100E000070930F0180931001909311012091E905D7
:100E10003091EA052130310509F06CC020E030E066
:100E20004CE152E40E942D2E87FD0CC080E090E042
:100E3000ACE1B2E480930E0190930F01A0931001F6
:100E4000B09311010E94A525C0908804D090890418
:100E5000E0908A04F0908B046C197D098E099F093B
:100E6000613D77408105910508F457C02AE037EDD0
:100E700043EA5CE360910E0170910F0180911001D3
:100E8000909111010E94622C60930E0170930F01EA
:100E900080931001909311012091E9053091EA05AA
:100EA0002130310509F0DEC020E030E04CE152E4B1
:100EB0000E942D2E87FD31C080E090E0ACE1B2E4CD
:100EC00080930E0190930F01A0931001B093110134
:100ED00024C0232B09F064CF20E030E040EA51E445
:100EE0000E94CE2C18160CF45BCF80E090E0A0EAB4
:100EF000B1E42CCF232B09F0A5CF20E030E044E172
:100F000052E40E942D2E87FD9DCF80E090E0A4E169
:100F1000B2E490CF882309F495CF80919804813072
:100F200051F40E94A52560938804709389048093EE
:100F30008A0490938B0480916B04813009F080C106
:100F40008091E5059091E605892B09F079C18091A2
:100F500097048093A50484E00E94762680939704EA
:100F60009091A504913009F09DC081119EC010920E
:100F70006F042DEC3CEC4CEC5DE360910A01709148
:100F80000B0180910C0190910D010E94622C6093E5
:100F90000A0170930B0180930C0190930D01209135
:100FA000E9053091EA052130310509F06BC020E0F8
:100FB00030E048E152E40E942D2E87FD0CC080E015
:100FC00090E0A8E1B2E480930A0190930B01A09312
:100FD0000C01B0930D010E94A525C0908004D09013
:100FE0008104E0908204F09083046C197D098E09DD
:100FF0009F09613D77408105910508F456C02AE0BC
:1010000037ED43EA5CE360910A0170910B01809136
:101010000C0190910D010E94622C60930A01709363
:101020000B0180930C0190930D012091E905309103
:10103000EA052130310509F0D1C020E030E048E177
:1010400052E40E942D2E87FD30C080E090E0A8E1A0
:10105000B2E480930A0190930B01A0930C01B0932A
:101060000D0123C0232B09F058CF20E030E044E1EC
:1010700052E40E942D2E87FD50CF80E090E0A4E145
:10108000B2E41ECF232B09F0A6CF20E030E044E1EC
:1010900052E40E942D2E87FD9ECF80E090E0A4E1D7
:1010A000B2E491CF882309F496CF809197048130E0
:1010B00051F40E94A525609380047093810480936D
:1010C000820490938304809196048093A40483E027
:1010D0000E947626809396049091A404913009F0A2
:1010E0009EC081119FC010926F042DEC3CEC4CEC23
:1010F0005DE360910A0170910B0180910C01909168
:101100000D010E94612C60930A0170930B01809382
:101110000C0190930D012091E9053091EA052130F1
:10112000310509F06BC020E030E044E152E40E9458
:10113000CE2C181664F080E090E0A4E1B2E4809335
:101140000A0190930B01A0930C01B0930D010E9432
:10115000A525C0907C04D0907D04E0907E04F090A2
:101160007F046C197D098E099F09613D77408105D7
:10117000910508F457C02AE037ED43EA5CE360913B
:101180000A0170910B0180910C0190910D010E9458
:10119000612C60930A0170930B0180930C01909372
:1011A0000D012091E9053091EA052130310509F062
:1011B0004CC020E030E044E152E40E94CE2C1816EE
:1011C0008CF180E090E0A4E1B2E480930A01909376
:1011D0000B01A0930C01B0930D0124C0232B09F047
:1011E00064CF20E030E044E152E40E942D2E87FDE0
:1011F0005CCF80E090E0A4E1B2E42BCF232B09F098
:10120000A6CF20E030E048E052E40E94CE2C181631
:101210000CF49DCF80E090E0A8E0B2E490CF88236A
:1012200009F495CF80919604813051F40E94A52550
:1012300060937C0470937D0480937E0490937F047C
:10124000FF90EF90DF90CF900895232B59F720E087
:1012500030E048E052E40E94CE2C18161CF380E0E7
:1012600090E0A8E0B2E4B1CF0F931F93CF938091A9
:101270008F0480939D048AE00E94762680938F04D9
:1012800080916904811122C00E94A52500917004FB
:10129000109171042091720430917304601B710BE2
:1012A000820B930B693E73408105910578F00E9493
:1012B000A5256093700470937104809372049093D9
:1012C000730480916F048F5F80936F0480919D04FD
:1012D0008130C1F580918F04811134C080916904FF
:1012E0008F5F809369048130B9F481E090E090933E
:1012F000E6058093E5058CE380936F040E94A525A5
:1013000060937004709371048093720490937304DB
:1013100060E088E00E94482680916904823091F460
:1013200010926F041092E6051092E5051092690480
:1013300061E088E00E94482680916904823010F0C4
:101340001092690480916F048C33D0F081E0809317
:10135000690481E090E09093E6058093E5058CE3D5
:1013600080936F040E94A5256093700470937104AC
:10137000809372049093730460E088E00E94482692
:101380008091E5059091E605892B09F0A9C180912E
:10139000EB059091EC05181619060CF464C08091C9
:1013A000900480939E0486E00E94762680939004A9
:1013B00090919E04913009F04FC081114DC0109260
:1013C0006F0480916D048F5F80936D048130F1F420
:1013D00081E090E09093EA058093E90560E087E082
:1013E0000E94482680E090E0A4E1B2E480930E01E0
:1013F00090930F01A0931001B093110180930A0103
:1014000090930B01A0930C01B0930D0180916D049A
:10141000823011F51092EA051092E90510926D04E0
:1014200061E087E00E94482680E090E0A8EDB1E40A
:1014300080930E0190930F01A0931001B0931101BE
:1014400080E090E0A8E0B2E480930A0190930B0161
:10145000A0930C01B0930D018091E5059091E605F4
:10146000892B09F03DC1809193048093A1048DE202
:101470000E947626809393049091A104913009F004
:1014800071C081116FC010926F0480916C048F5FE6
:1014900080936C04813071F410926B0482E080932D
:1014A000B30461E081E30E94482680916B048111BE
:1014B00010926B04C0916C04C230E9F520E030E07A
:1014C00040E251E460910E0170910F018091100192
:1014D000909111010E94322E0E944C2D7093A9040C
:1014E0006093A80490E080E00E947B2D20E030E033
:1014F00040E251E40E94D32C6093F2057093F3050F
:101500008093F4059093F50582E090E09093EC05CC
:101510008093EB05C093B30410926B0460E082E308
:101520000E94482661E081E30E94482680916B0476
:10153000811110926B0480916C04833099F41092A5
:101540006C0410926B041092EC051092EB05109253
:10155000B30461E082E30E94482680916B0481110C
:1015600010926B04809192048093A00485E00E9405
:101570007626809392049091A004913009F070C077
:1015800081116EC010926F0480916B048F5F809305
:101590006B04813069F410926C048093B30461E0B1
:1015A00082E30E94482680916C04811110926C04A1
:1015B00080916B048230E9F520E030E040E251E4B4
:1015C00060910A0170910B0180910C0190910D01C5
:1015D0000E94322E0E944C2D7093A9046093A8049F
:1015E00090E080E00E947B2D20E030E040E251E47A
:1015F0000E94D32C6093F2057093F3058093F40559
:101600009093F50510926C0481E090E09093EC05C6
:101610008093EB058093B30460E081E30E94482649
:1016200061E082E30E94482680916C04811110924F
:101630006C0480916B04833099F410926B041092C7
:101640006C041092EC051092EB051092B30461E06B
:1016500081E30E94482680916C04811110926C04F1
:101660008091910480939F048DE00E947626809360
:10167000910490919F04913099F5811131C010929D
:101680006F0480916A048F5F80936A048230D1F482
:101690008091060190910701A0910801B091090184
:1016A0008093EE059093EF05A093F005B093F105BC
:1016B00060E080E30E94482681E090E09093E80596
:1016C0008093E70580916A04833051F410926A0494
:1016D0001092E8051092E70561E080E30E94482639
:1016E00080918D0480939B0488E10E9476268093EC
:1016F0008D0490919B049130A1F5811132C010921C
:101700006F040E94A5250E947B2D6093BA047093FC
:10171000BB048093BC049093BD048091E305909139
:10172000E4059093E2058093E1050E94A5250E94BF
:101730007B2D2091BA043091BB044091BC045091A0
:10174000BD040E94612C20E030E44CE156E40E948C
:10175000CE2C87FF06C081E090E09093E405809353
:10176000E3050E94A5250E947B2D2091BA043091AB
:10177000BB044091BC045091BD040E94612C20E048
:1017800030E44CE156E40E942D2E181644F41092D9
:10179000E4051092E3051092E2051092E1058091B4
:1017A0008C0480939A0489E10E94762680938C04AD
:1017B00090919A049130A9F4811113C010926F0492
:1017C000809168048F5F80936804813009F051C173
:1017D0008093E00580916804833009F05BC18093B9
:1017E000E00580916B04811167C080916C048130A9
:1017F00009F0CDC00E94A5250E947B2D2091CA042E
:101800003091CB044091CC045091CD040E94612CC6
:1018100020E030E04AEF53E40E942D2E1816E4F445
:101820008091CE049091CF04892BB1F461E082E3E2
:101830000E9448260E94A5250E947B2D6093CA0421
:101840007093CB048093CC049093CD0481E090E01E
:101850009093CF048093CE040E94A5250E947B2DF7
:101860002091CA043091CB044091CC045091CD0416
:101870000E94612C20E030E04AEF53E40E942D2EBC
:101880001816D4F48091CE049091CF040197A1F45E
:1018900060E082E30E9448260E94A5250E947B2DDD
:1018A0006093CA047093CB048093CC049093CD04CE
:1018B0001092CF041092CE0480916B04813009F015
:1018C00066C080916C04811162C00E94A5250E94AF
:1018D0007B2D2091C4043091C5044091C6045091E1
:1018E000C7040E94612C20E030E04AEF53E40E94DC
:1018F0002D2E1816E4F48091C8049091C904892B08
:10190000B1F461E081E30E9448260E94A5250E946F
:101910007B2D6093C4047093C5048093C604909398
:10192000C70481E090E09093C9048093C8040E94AA
:10193000A5250E947B2D2091C4043091C5044091BF
:10194000C6045091C7040E94612C20E030E04AEFA9
:1019500053E40E942D2E1816D4F48091C80490915F
:10196000C9040197A1F460E081E30E9448260E9427
:10197000A5250E947B2D6093C4047093C5048093B9
:10198000C6049093C7041092C9041092C8048091B1
:101990006A04813009F069C08091E7059091E805FB
:1019A000892B09F062C00E94A5250E947B2D209101
:1019B000BE043091BF044091C0045091C1040E9404
:1019C000612C20E030E04AEF53E40E942D2E1816DF
:1019D000E4F48091C2049091C304892BB1F461E0D6
:1019E00080E30E9448260E94A5250E947B2D6093DB
:1019F000BE047093BF048093C0049093C10481E03F
:101A000090E09093C3048093C2040E94A5250E9495
:101A10007B2D2091BE043091BF044091C0045091B1
:101A2000C1040E94612C20E030E04AEF53E40E94A0
:101A30002D2E1816D4F48091C2049091C3040197FE
:101A4000A1F460E080E30E9448260E94A5250E9440
:101A50007B2D6093BE047093BF048093C004909369
:101A6000C1041092C3041092C204CF911F910F9130
:101A70000895823009F0AECE8093E005809119067A
:101A800080936704809118068093660483E08093B6
:101A90006804A0CE843009F0A4CE1092680410929D
:101AA000E0059FCE0F931F93CF9380918E04809378
:101AB0009C0482E00E94762680938E04C0919C0450
:101AC000C13039F5811125C00E94A5250091B504CA
:101AD0001091B6042091B7043091B804601B710BCB
:101AE000820B930B613177428105910590F08091D3
:101AF000B40481110EC0C093ED05C093B4040E94DC
:101B0000A5256093B5047093B6048093B7049093B1
:101B1000B8040E94A5250091B5041091B604209147
:101B2000B7043091B804601B710B820B930B6131C9
:101B300077428105910590F08091B404813071F471
:101B40001092ED051092B4040E94A5256093B5048F
:101B50007093B6048093B7049093B804CF911F910B
:101B60000F9108952F923F924F925F926F927F92C2
:101B70008F929F92AF92BF92CF92DF92EF92FF929D
:101B80000F931F93CF93DF9300D000D0CDB7DEB774
:101B90008091DE059091DF05019721F460E080E2FD
:101BA0000E9448268091DE059091DF05892B39F44B
:101BB00061E080E20E94482681E0809300018091EC
:101BC000DC059091DD05019731F08091DA05909167
:101BD000DB05019721F460E08DE10E9448268091A9
:101BE000DC059091DD05892B79F48091DA059091DF
:101BF000DB05892B49F461E08DE10E94482681E0F4
:101C000080930101809302018091D8059091D905BC
:101C1000019731F08091D6059091D705019721F475
:101C200060E08EE10E9448268091D8059091D90508
:101C3000892B79F48091D6059091D705892B49F4A9
:101C400061E08EE10E94482681E080930301809349
:101C500004018091D4059091D505019721F460E0AD
:101C60008CE10E9448268091D4059091D505892B5E
:101C700039F461E08CE10E94482681E080930501FF
:101C80008091D2059091D305019721F460E08FE116
:101C90000E9448268091D2059091D305892B39F472
:101CA00061E08FE10E94482681E080930601409127
:101CB000DE055091DF055A8349834130510531F4E7
:101CC00080910001813011F4809347046091DC051C
:101CD0007091DD056130710531F480910101813031
:101CE00011F480934804A091DA05B091DB05A1308E
:101CF000B10531F480910201813011F480934904DF
:101D00008091D8059091D9059C838B83019731F4FC
:101D100080910301813011F480934A040091D6052B
:101D20001091D7050130110531F480910401813003
:101D300011F480934B04E090D405F090D50591E028
:101D4000E916F10431F480910501813011F480939A
:101D50004C04C090D205D090D30541E0C416D10404
:101D600031F480910601813011F480934D0480910B
:101D7000E3059091E40520914704213039F4813046
:101D8000910521F41092000110924704209148041B
:101D9000213039F48130910521F410920101109223
:101DA000480420914904213039F48130910521F40F
:101DB000109202011092490420914A04213039F412
:101DC0008130910521F41092030110924A04209170
:101DD0004B04213039F48130910521F41092040133
:101DE00010924B0420914C04213039F4813091053C
:101DF00021F41092050110924C0420914D042130E1
:101E000039F48130910521F41092060110924D04AD
:101E10002091B0043091B104309000014090010154
:101E200050900201609003017090040180900501C0
:101E30009090B204A090AF04E7E4F4E0222423944D
:101E400054E0EE34F50709F444C0B19041E0B41217
:101E500039C02F5F3F4F203553EC350720F0AA24BF
:101E6000A39420E533EC8130910571F1009771F472
:101E700020920601882483947724739466246394C3
:101E800055245394442443943324339449815A81F0
:101E9000452BB1F46115710599F4109789F44B81C4
:101EA0005C81452B69F40115110551F4E114F1042D
:101EB00039F4C114D10421F4A12C30E020E0B12C7C
:101EC0009B2CBECFB92CCFCFA12C30E020E0B12C81
:101ED000DDCF87E08093B9049092B2043093B104CF
:101EE0002093B004A092AF0430920001409201010F
:101EF00050920201609203017092040180920501E8
:101F00000F900F900F900F90DF91CF911F910F9135
:101F1000FF90EF90DF90CF90BF90AF909F908F9009
:101F20007F906F905F904F903F902F9008954F92C9
:101F30005F926F927F928F929F92AF92BF92CF9259
:101F4000DF92EF92FF920F931F93CF93DF93CDB762
:101F5000DEB729970FB6F894DEBF0FBECDBF409015
:101F60001206509013066090140670901506409269
:101F70000206509203066092040670920506809055
:101F80000A0690900B06A0900C06B0900D06809269
:101F9000FA059092FB05A092FC05B092FD05C09059
:101FA0000606D0900706E0900806F0900906C09259
:101FB000F605D092F705E092F805F092F9058091C8
:101FC0000E0690910F06A0911006B09111068D8318
:101FD0009E83AF83B8878093FE059093FF05A093FF
:101FE0000006B09301068091170680931906809130
:101FF00016068093180680910E0190910F01A09112
:102000001001B091110189839A83AB83BC8320E0D6
:1020100030E040E251E4BC01CD010E94D32C0E948B
:102020004C2D698760936504AAE06A9FB001112472
:10203000072E000C880B990B0E947D2D9B01AC0193
:1020400069817A818B819C810E94612C0E944C2D38
:10205000062F6093640420E030E040E251E469819F
:102060007A818B819C810E94322E69837A838B8353
:102070009C8314E6B985B19FB0011124072E000C92
:10208000880B990B0E947D2D9B01AC0169817A819F
:102090008B819C810E94612C69837A838B839C83D2
:1020A0002AE0029FB0011124072E000C880B990B27
:1020B0000E947D2D9B01AC0169817A818B819C817D
:1020C0000E94612C0E944C2D6093630420E030E05C
:1020D00040E251E4C301B2010E94D32C0E944C2D76
:1020E0006983609362049AE0699FB0011124072E0E
:1020F000000C880B990B0E947D2D9B01AC01C30144
:10210000B2010E94612C0E944C2D062F6093610445
:1021100020E030E040E251E4C301B2010E94322EDF
:102120002B013C01A981A19FB0011124072E000CB5
:10213000880B990B0E947D2D9B01AC01C301B2015C
:102140000E94612C2B013C01BAE00B9FB0011124CD
:10215000072E000C880B990B0E947D2D9B01AC0172
:10216000C301B2010E94612C0E944C2D6093600457
:1021700040900A0150900B0160900C0170900D018D
:1021800020E030E040E251E4C301B2010E94D32CD0
:102190000E944C2D698360935F04262F8AE0289F5C
:1021A000B0011124072E000C880B990B0E947D2D85
:1021B0009B01AC01C301B2010E94612C0E944C2D15
:1021C000062F60935E0420E030E040E251E4C3015A
:1021D000B2010E94322E2B013C019981919FB001E6
:1021E0001124072E000C880B990B0E947D2D9B015A
:1021F000AC01C301B2010E94612C2B013C01AAE099
:102200000A9FB0011124072E000C880B990B0E9425
:102210007D2D9B01AC01C301B2010E94612C0E9483
:102220004C2D60935D0420E030E040E251E4C501B4
:10223000B4010E94D32C0E944C2D698360935C04EE
:102240002AE0629FB0011124072E000C880B990B25
:102250000E947D2D9B01AC01C501B4010E94612C3F
:102260000E944C2D062F60935B0420E030E040E29A
:1022700051E4C501B4010E94322E4B015C018981F9
:10228000819FB0011124072E000C880B990B0E942E
:102290007D2D9B01AC01C501B4010E94612C4B0155
:1022A0005C019AE0099FB0011124072E000C880BF5
:1022B000990B0E947D2D9B01AC01C501B4010E94C8
:1022C000612C0E944C2D60935A0420E030E040E2E3
:1022D00051E4C701B6010E94D32C0E944C2D062F59
:1022E00060935904AAE06A9FB0011124072E000CE4
:1022F000880B990B0E947D2D9B01AC01C701B60193
:102300000E94612C0E944C2D69836093580420E048
:1023100030E040E251E4C701B6010E94322E6B0169
:102320007C01019FB0011124072E000C880B990B32
:102330000E947D2D9B01AC01C701B6010E94612C5A
:102340006B017C01B9812AE0B29FB0011124072EF4
:10235000000C880B990B0E947D2D9B01AC01C701DD
:10236000B6010E94612C0E944C2D6093570420E01E
:1023700030E040E251E46D817E818F8198850E943A
:10238000D32C0E944C2D609356048AE0689FB001C4
:102390001124072E000C880B990B0E947D2D9B01A8
:1023A000AC016D817E818F8198850E94612C0E9495
:1023B0004C2D60935504C0900601D0900701E09029
:1023C0000801F090090120E030E040E251E4C7014B
:1023D000B6010E94D32C0E944C2D609354049AE0C5
:1023E000699FB0011124072E000C880B990B0E94E5
:1023F0007D2D9B01AC01C701B6010E94612C0E949A
:102400004C2D609353048091E00581112DC01092F2
:102410005204109251041092500410924F0400E0A4
:102420002DE242E050E070E060E08AE196E00E9438
:1024300030252DE246E050E070E060E08AE196E071
:102440000E9430252DE244E050E070E060E08AE137
:1024500096E00E9430252DE250E040E070E060E020
:102460008AE196E00E9430258091E005813009F0F4
:1024700045C000E02091520442E050E070E060E08E
:102480008AE196E00E9406252091510446E050E042
:1024900070E060E08AE196E00E94062501E020916C
:1024A000500444E050E070E060E08AE196E00E9471
:1024B000062520914F0450E040E070E060E08AE1A2
:1024C00096E00E940625209119065AE0822F652F7A
:1024D0000E94AF2E482F8093520430911806832F0C
:1024E0000E94AF2E809350043A3008F0C2C030935F
:1024F0004F042A3008F0C2C0209351048091E005B7
:10250000833009F09FC08091670480931906809101
:102510006604809318060E94A5250091AB041091D3
:10252000AC042091AD043091AE04601B710B820BA2
:10253000930B653F714081059105D8F18091AA0404
:10254000811137C000E02091520442E050E070E079
:1025500060E08AE196E00E9406252091510446E061
:1025600050E070E060E08AE196E00E94062501E01C
:102570002091500444E050E070E060E08AE196E091
:102580000E94062520914F0450E040E070E060E09A
:102590008AE196E00E9406250E94A5256093AB047F
:1025A0007093AC048093AD049093AE0481E080936B
:1025B000AA040E94A5250091AB041091AC042091BF
:1025C000AD043091AE04601B710B820B930B653F21
:1025D000714081059105B0F18091AA04813091F597
:1025E00000E02BE642E050E070E060E08AE196E037
:1025F0000E9430252BE646E050E070E060E08AE182
:1026000096E00E94302501E02BE644E050E070E0C7
:1026100060E08AE196E00E9430252BE650E040E041
:1026200070E060E08AE196E00E9430250E94A525D6
:102630006093AB047093AC048093AD049093AE04AC
:102640001092AA0429960FB6F894DEBF0FBECDBF34
:10265000DF91CF911F910F91FF90EF90DF90CF907E
:10266000BF90AF909F908F907F906F905F904F90B2
:10267000089596EF899F300D112439CFA6EF4A9F18
:10268000200D112439CFAF92BF92CF92DF92EF92FB
:10269000FF920F931F93CF93DF930E94970F00E059
:1026A0002091620442E050E061E070E08AE196E04F
:1026B0000E94062501E02091610441E050E061E0C4
:1026C00070E08AE196E00E94062500E02091600417
:1026D00045E050E061E070E08AE196E00E94062566
:1026E00020915C0450E040E061E070E08AE196E017
:1026F0000E94062501E020915B0444E050E061E087
:1027000070E08AE196E00E94062500E020915A04DC
:1027100046E050E061E070E08AE196E00E94062524
:102720002091590441E050E070E060E08AE196E0D9
:102730000E9406252091570445E050E070E060E0DB
:102740008AE196E00E94062501E02091580447E0C6
:1027500050E070E060E08AE196E00E94062500E02B
:102760002091560443E050E061E070E08AE196E099
:102770000E9406252091550447E050E061E070E09A
:102780008AE196E00E9406252091540443E050E03F
:1027900062E070E08AE196E00E94062520915304F1
:1027A00042E050E062E070E08AE196E00E94062597
:1027B00060914E0470E090E080E01F921F921F92A3
:1027C0002AE02F93A12CB12C6501E12CF12C87017B
:1027D000EA9420E030E0A9010E94102C60934D049F
:1027E00002E111E00F900F900F900F90D0E0C0E049
:1027F000F80180810E5F1F4F90914D0460E09C179F
:102800001D0609F00CF461E00E9448262196CA30AA
:10281000D10571F78091B304811141C000E020918E
:10282000650450E040E062E070E08AE196E00E94DA
:10283000062501E02091640444E050E062E070E08D
:102840008AE196E00E94062500E02091630446E0BC
:1028500050E062E070E08AE196E00E940625209157
:102860005F0447E050E062E070E08AE196E00E9499
:10287000062501E020915E0445E050E062E070E052
:102880008AE196E00E94062500E020915D0441E087
:1028900050E062E070E08AE196E00E9406258091B7
:1028A000B3048130E1F500E02DE250E040E062E069
:1028B00070E08AE196E00E9430252DE244E050E08D
:1028C00062E070E08AE196E00E9430252DE246E069
:1028D00050E062E070E08AE196E00E9430252091AD
:1028E0005F0447E050E062E070E08AE196E00E9419
:1028F000062501E020915E0445E050E062E070E0D2
:102900008AE196E00E94062500E020915D0441E006
:1029100050E062E070E08AE196E00E940625809136
:10292000B3048230E1F500E02DE247E050E062E0E0
:1029300070E08AE196E00E9430252DE245E050E00B
:1029400062E070E08AE196E00E9430252DE241E0ED
:1029500050E062E070E08AE196E00E94302520912C
:10296000650450E040E062E070E08AE196E00E9499
:10297000062501E02091640444E050E062E070E04C
:102980008AE196E00E94062500E02091630446E07B
:1029900050E062E070E08AE196E00E940625DF9157
:1029A000CF911F910F91FF90EF90DF90CF90BF904C
:1029B000AF9008950F9341E070E060E08AE196E007
:1029C0000E94182441E061E070E08AE196E00E94F4
:1029D000182441E062E070E08AE196E00E94182449
:1029E0000E94970F00E02BE650E040E062E070E0CC
:1029F0008AE196E00E94302501E02BE641E050E0BC
:102A000062E070E08AE196E00E94302500E02BE66B
:102A100042E050E062E070E08AE196E00E943025FA
:102A20002BE643E050E062E070E08AE196E00E942D
:102A3000302501E02BE644E050E062E070E08AE1FE
:102A400096E00E94302500E02BE645E050E062E091
:102A500070E08AE196E00E9430252BE643E050E0EA
:102A600061E070E08AE196E00E94302501E02BE60B
:102A700044E050E061E070E08AE196E00E94302599
:102A800000E02BE645E050E061E070E08AE196E08E
:102A90000E9430252BE641E050E061E070E08AE1E1
:102AA00096E00E94302501E02BE647E050E061E02F
:102AB00070E08AE196E00E94302500E02BE646E0D7
:102AC00050E061E070E08AE196E00E9430252BE65C
:102AD00050E040E070E060E08AE196E00E9430253E
:102AE0002BE641E050E070E060E08AE196E00E9471
:102AF00030252BE642E050E070E060E08AE196E0AD
:102B00000E9430252BE643E050E070E060E08AE16F
:102B100096E00E9430252BE646E050E070E060E051
:102B20008AE196E00E9430252BE642E050E070E01A
:102B300060E08AE196E00E9430252BE644E050E018
:102B400070E060E08AE196E00E9430252BE650E0DC
:102B500040E070E060E08AE196E00E9430250F914D
:102B600008950F931F93CF93C091B204C13009F021
:102B7000BFC08091AF04811157C068E271E08BE75C
:102B800096E00E946E290E94A52500913F041091B5
:102B900040042091410430914204601B710B820B70
:102BA000930B693E734081059105C0F080913E040E
:102BB000811114C00E94A52560933F0470934004C6
:102BC0008093410490934204C0933E0420E030E09F
:102BD000A90168E978E08BE10E9485290E94A5257A
:102BE00000913F041091400420914104309142042F
:102BF000601B710B820B930B693E7340810591053D
:102C000098F080913E04813079F40E94A52560936C
:102C10003F047093400480934104909342041092C7
:102C20003E048BE10E949F2BC091AF04C13009F09C
:102C300065C06FE271E08BE796E00E946E290E940A
:102C4000A52500913F04109140042091410430914A
:102C50004204601B710B820B930B693E734081052C
:102C60009105C0F080913E04811114C00E94A525F9
:102C700060933F0470934004809341049093420416
:102C8000C0933E0420E030E0A90168E978E08BE1E0
:102C90000E9485290E94A52500913F0410914004BF
:102CA0002091410430914204601B710B820B930B05
:102CB000693E73408105910508F180913E048130A1
:102CC000E9F40E94A52560933F047093400480932B
:102CD00041049093420410923E0420E030E0A901A8
:102CE00068E077E08BE1CF911F910F910C948529DB
:102CF0008BE1CF911F910F910C949F2BCF911F913E
:102D00000F910895FC010E969183808393838283B3
:102D1000009709F09E5F958384839783868310864E
:102D200015860895CF93DF9300D000D01F92CDB7C2
:102D3000DEB7009741F0FC0184818F77863091F0F7
:102D400030F4843020F560E070E0CB0111C08A30AF
:102D5000B9F08C3049F18830B1F76081718182819E
:102D6000938104C0608170E090E080E00E947B2D40
:102D70000F900F900F900F900F90DF91CF910895CB
:102D800060817181828193810E947D2DF1CF80814C
:102D900091811D82BE016F5F7F4F0E947E02CE0136
:102DA00001960E949216E4CF6081718182819381A5
:102DB000DFCFCF92DF92EF92FF92CF93DF9300D0DD
:102DC00000D01F92CDB7DEB7FC01892B39F084818A
:102DD0008F778630B1F020F4843000F580E012C0A7
:102DE0008A3021F08C3039F18830C1F780819181AF
:102DF000A281B3818F3F9105A105B10519F010F0B3
:102E0000EDCF80810F900F900F900F900F90DF917A
:102E1000CF91FF90EF90DF90CF90089580819181C6
:102E20001D82BE016F5F7F4F0E947E02CE01019620
:102E30000E94D916E7CFC080D180E280F38020E0E5
:102E400030E0A901C701B6010E942D2E87FDC6CF33
:102E500020E030E04FE753E4C701B6010E94CE2CDA
:102E600018160CF4BBCFC701B6010E944C2D862F5B
:102E7000C9CFCF92DF92EF92FF92CF93DF9300D032
:102E800000D01F92CDB7DEB7FC01892B39F08481C9
:102E90008F778630B9F028F4843088F590E080E0B0
:102EA00013C08A30E9F08C30B9F18830B9F78081ED
:102EB0009181A281B381811520E89207A105B10516
:102EC00068F702C0808190E00F900F900F900F90F4
:102ED0000F90DF91CF91FF90EF90DF90CF9008950A
:102EE00080819181A281B381AC01BD0150586F4FA7
:102EF0007F4F411551056140710580F6E5CF808116
:102F000091811D82BE016F5F7F4F0E947E02CE01C4
:102F100001960E943917D8CFC080D180E280F3801B
:102F200020E030E040E057ECC701B6010E942D2EB2
:102F300087FDB4CF20E03EEF4FEF56E4C701B60166
:102F40000E94CE2C18160CF4A9CFC701B6010E941E
:102F5000452DCB01B9CFFC01808581110AC0A58127
:102F6000B681CD010196968385838C91878381E01C
:102F7000808787810895CF93DF93EC01CE010E9473
:102F8000AB178B303CF489304CF4882349F081E056
:102F90008C8310C08D3011F08032C9F71886EECFC7
:102FA0008C8181110AC081E090E0C55BDF4F99837D
:102FB000888380E0DF91CF91089582E090E0F5CFA3
:102FC0001F93CF93DF93EC01162F0E94AB17811351
:102FD00006C0188681E0DF91CF911F91089580E0AF
:102FE000FACF9F92AF92BF92CF92DF92EF92FF9271
:102FF0000F931F93CF93DF9300D000D01F92CDB7D4
:10300000DEB78C010E94AB17B82ED80118961C921F
:10301000F12CE12C70EFA72EC8010E94AB17F8012C
:103020001086B81609F4CBC0811119C0F801E55B10
:10303000FF4F82E090E09183808380E00F900F90BB
:103040000F900F900F90DF91CF911F910F91FF90F4
:10305000EF90DF90CF90BF90AF909F9008958C3508
:1030600009F0A2C0C8010E94AB178823F9F2E6E379
:10307000F1E0853709F08CC0D80118961C9264E005
:10308000962ED12CC12CC8010E94AB17882371F257
:1030900081344CF48053803148F0F801E55BFF4FF8
:1030A00083E090E0C8CF8F7D8753F5CF54E0CC0C00
:1030B000DD1C5A95E1F7C82AF80110869A94911000
:1030C000E2CFC601985D8115944020F4760123E09B
:1030D000F222A2CFC6019C5D8115944078F5B3E041
:1030E000DB22C701982F8827990F990F8C299D29DA
:1030F000B0E0A0E011961982282F2F7320682A8350
:1031000036E0B695A795979587953A95D1F7803291
:10311000910530F5806C8B83FE0134968291882373
:1031200009F47ACFD8014D915C9111979A012F5FE4
:103130003F4F2D933C93DA018C93F0CFC601B0E062
:10314000A0E080389105A105B105A8F6D801ED9160
:10315000FC911197CF0101968D939C93C0825CCF17
:10316000282F2F7320682B8326E0969587952A9524
:10317000E1F78031910528F4806E8C83FE0135964D
:10318000CDCF80688C83AD82FE013696C7CF329654
:103190009081992309F481CF8913F9CF8181882304
:1031A00009F47BCFF8011086D801ED91FC911197BD
:1031B0009F012F5F3F4F2D933C9380832DCF81E064
:1031C0003DCF80339CF08A3324F08F3524F08B3749
:1031D00024F481E0089581344CF08B35D4F393EDE1
:1031E000980F81E09230B0F380E008958B32B9F708
:1031F000F0CF9F92AF92BF92CF92DF92EF92FF9269
:103200000F931F93CF93DF93EC018B01E22E0E946B
:10321000BB17D82E811102C0F12C69C0CE010E94CB
:10322000AB17873209F49EC014F5823209F49AC0B4
:10323000CE010E94AB17E82E5E01FBE0AF0EB11C81
:10324000F12C9A2CCB2C8E2D0E94E118882309F4A6
:10325000ABC08FE3F81609F4A7C01886F394F50104
:10326000E1925F01CE010E94AB17E82EECCF8B35C7
:10327000E1F08B37E9F6F8018481807880628483FD
:1032800011821082138212822E2D40E0B801CE01ED
:10329000DF91CF911F910F91FF90EF90DF90CF9032
:1032A000BF90AF909F900C94041AF80184818078AD
:1032B000806484831182108213821282E11007C01D
:1032C000C55BDF4F85E090E099838883A5CF1886A2
:1032D000CE010E94BB17882309F49ECF6DE5CE0175
:1032E0000E94E017F82EEA94882371F0FD2C8F2DB0
:1032F000DF91CF911F910F91FF90EF90DF90CF90D2
:10330000BF90AF909F90089569857A85C8010E940B
:103310009A01009739F4C55BDF4F84E090E0998310
:103320008883E5CF2E2D40E0BC01CE010E94F91824
:10333000882309F471CFCE010E94BB17882309F4BA
:103340006BCF6DE5CE010E94E0178111CFCF6CE20B
:10335000CE010E94E0178111D7CFC55BDF4F83E01C
:1033600090E0B2CF888199819B838A83CE010E94AD
:10337000F117F82E882309F44FCFE881F9811082E4
:10338000288139814A815B81C901019699838883AB
:10339000F801848180788460848351834083241B76
:1033A000350B33832283A3CFFE01EF0DF11D13866E
:1033B0008B85843781F4F8018481807886608483EA
:1033C00081E08083F4E0FF1609F490CFC55BDF4F06
:1033D00082E090E079CF863641F4F80184818078EC
:1033E000866084831082F5E0EECF8E3621F484E08F
:1033F000F812ECCF7BCFB801892D9C2D0E947E0264
:10340000882309F4AACF72CFAF92BF92CF92DF92F6
:10341000FF920F931F93CF93DF93211113C0EC0101
:10342000C55BDF4F85E090E09983888310E0812FB2
:10343000DF91CF911F910F91FF90DF90CF90BF90C0
:10344000AF900895F22E6B01EC0118860E94BB1715
:10345000182F882361F36DE7CE010E94E017182F23
:103460008111E5CFFA94888199819B838A83CE016B
:103470000E94AB17873289F0823279F0CE010E9428
:10348000AB17082F0E94E11881113BC0C55BDF4FCD
:1034900083E090E099838883CACFCE010E94F11720
:1034A000882329F2CE010E94BB17882309F4BFCFDD
:1034B0006AE3CE010E94E017882341F3E881F98195
:1034C0001082A880B9806A817B81C6010E945E015A
:1034D000BC01892B69F5F5011082AA80BB80888127
:1034E000998101969983888369857A85C6010E94AE
:1034F0009A01FC01892BB1F4C55BDF4F84E090E0B9
:10350000C9CF1886E881F981CF0101969983888314
:103510000083CE010E94AB17082F0E94E118811191
:10352000F0CFC0CF84818F778483B782A682BF011A
:103530002F2D40E0CE010E94F918882309F477CF9F
:10354000CE010E94BB17882309F471CF6DE7CE012D
:103550000E94E01781110DC06CE2CE010E94E017BD
:10356000882309F493CFCE010E94BB1781117BCF32
:103570005ECF182F5CCFFC01248125FD0C945E01E9
:1035800090E080E00895CF93DF93EC0188819981EA
:10359000DC01ED91FC910280F381E02D09952A81F7
:1035A0003B81820F931F9B838A83DF91CF91089584
:1035B000FB0101900020E9F73197AF01461B570B43
:1035C0000C94C31A8F929F92AF92BF92CF92DF92C8
:1035D000EF92FF920F931F93CF93DF93CDB7DEB798
:1035E00066970FB6F894DEBF0FBECDBF6C018E019B
:1035F000095E1F4F78018AE0882E912CA12CB12CF6
:10360000CB01BA01A50194010E94CF2E942F852FE2
:10361000605DF80162938F01A901692F782F411530
:1036200051056105710561F7A7014E1B5F0BBF01D5
:10363000C6010E94C31A66960FB6F894DEBF0FBE8D
:10364000CDBFDF91CF911F910F91FF90EF90DF9051
:10365000CF90BF90AF909F908F900895CF93DF93BE
:10366000EC0188819981DC01ED91FC910190F08160
:10367000E02D09952A813B81820F931F9B838A83CA
:10368000DF91CF9108951F93CF93DF93E6E3F1E0AD
:103690001281112379F0329621816213F9CFEC0166
:1036A0006CE50E942E1B612FCE01DF91CF911F91FF
:1036B0000C942E1B6111F9CF67E471E0DF91CF917B
:1036C0001F910C94D81A2F923F924F925F926F9253
:1036D0007F928F929F92AF92BF92CF92DF92EF92A2
:1036E000FF920F931F93CF93DF93CDB7DEB76C9705
:1036F0000FB6F894DEBF0FBECDBF8C011B01DC01FD
:1037000014968C9114978F77863009F492C268F5DD
:103710008230A0F11296ED90FC901397CC90119608
:10372000DC90843008F056C2A701B601C1010E94A6
:10373000C31AF101828193816C960FB6F894DEBFB3
:103740000FBECDBFDF91CF911F910F91FF90EF90F2
:10375000DF90CF90BF90AF909F908F907F906F90B1
:103760005F904F903F902F9008958C3069F160F4F6
:10377000883009F459C28A3009F43FC26EE471E01E
:10378000C1010E94D81AE5C1803209F4ECC180342D
:10379000A9F76BE5C1010E942E1BF8010081118180
:1037A0000115110509F4DAC1B101C8010E94631BBA
:1037B000C8010E9450018C01892B09F4CFC16CE231
:1037C000C1010E942E1BECCFF801C080D180E280A5
:1037D000F380A7019601C701B6010E94CE2C81118A
:1037E000CDCF20E030E0A901C701B6010E94CE2C68
:1037F000882379F0A7019601C701B6010E94622CC7
:103800009B01AC01C701B6010E94CE2C882309F4AC
:10381000B5CF20E030E0A901C701B6010E94CE2C4F
:1038200087FF08C06DE2C1010E942E1BF7FAF094D9
:10383000F7F8F09420E836E948E15BE4C701B60107
:103840000E942D2E87FD81C074E1A72EB12C00E2CD
:1038500010E0188E1F8AF501E454FF4F2591359131
:1038600045915491C701B6010E942D2E87FD13C0CA
:10387000F501EC55FF4F2591359145915491C701C4
:10388000B6010E94322E6B017C012F89388D200FEA
:10389000311F388F2F8B1595079534E0A31AB10887
:1038A0008CEFA8168FEFB806B1F655245A9420E095
:1038B00030E0A901C701B6010E942D2E18160CF0A8
:1038C0004BC02CEA35EC47E257E3C701B6010E9432
:1038D000CE2C18160CF440C0A52DB4E0AB02C001EC
:1038E0001124B12CA12CFC01E457FF4F3F019C0196
:1038F00024543F4F49013FEF531671F1F301EA0D94
:10390000FB1D2591359145915491C701B6010E9447
:10391000CE2C87FF13C0F401EA0DFB1D25913591D4
:1039200045915491C701B6010E94322E6B017C0172
:103930008F89988D801B910B988F8F8B159507958C
:103940005A9494E0A91AB108D6CF00E210E055E0ED
:10395000552E188E1F8AABCFC701B6010E944C2D81
:103960004B015C012B013C0106E080E492E4AFE0F6
:10397000B0E0898F9A8FAB8FBC8F102F01509AE0E7
:103980004916510461047104C8F0698D7A8D8B8DDC
:103990009C8D2AE030E040E050E00E94CF2E298F3D
:1039A0003A8F4B8F5C8FC301B2012AE030E040E0D8
:1039B00050E00E94CF2E29013A01DFCFC501B401AA
:1039C0000E947B2D9B01AC01C701B6010E94612CB6
:1039D0006B017C01698D7A8D8B8D9C8D0E947B2D76
:1039E0009B01AC01C701B6010E94322E2B013C01A4
:1039F0000E944C2D6B017C010E947B2D9B01AC0130
:103A0000C301B2010E94612C9B01AC010E94622C97
:103A10000E944C2DC60ED71EE81EF91E898D9A8D68
:103A2000AB8DBC8DC816D906EA06FB06D8F09FEF11
:103A3000891A990AA90AB90AAF89B88DAB2B39F14D
:103A4000BAE08B169104A104B10408F1EF89F88D56
:103A50003196F88FEF8BC12CD12C7601812C912CD3
:103A6000540183942AE0422E512C612C712CC70101
:103A7000B601A30192010E94CF2E672B682B692B00
:103A800051F4111644F469017A011150F0CFC12CA0
:103A9000D12C7601E7CFB501A401C1010E94E21A41
:103AA000112371F14E01F1E18F0E911C012F540190
:103AB0009AE0492E512C612C712C015068F0C701FD
:103AC000B601A30192010E94CF2E605DD4016E93D6
:103AD0004D0169017A01F1CF812F90E0BC01609521
:103AE0007095F501E81BF90B31978EE2808344272E
:103AF0005527461B570B6A0D7B1DC1010E94C31A37
:103B0000EF89F88DEF2B29F165E6C1010E942E1B8C
:103B10000F89188D17FF07C06DE2C1010E942E1B8F
:103B2000119501951109FE0177969F018AE0E82E13
:103B3000F12CC801B7010E94BB2E805D82938B01DE
:103B4000672BB9F7A9014E1B5F0BBF01C1010E9492
:103B5000C31AD10112968D919C91EECD6DE5C101F4
:103B60000E942E1BF6CF6BE7C1010E942E1BF801AD
:103B7000008111810115110559F1D8011696CC90DB
:103B800016971796DC9062E2C1010E942E1B760107
:103B9000F70161917F01662321F0C1010E94431B5F
:103BA000F7CF62E2C1010E942E1B6AE3C1010E94AD
:103BB0002E1BB101C8010E94631BC8010E94500165
:103BC0008C01892B29F06CE2C1010E942E1BD2CFFF
:103BD0006DE7C5CF62E2C1010E942E1B8601E00E97
:103BE000F11EE016F10639F0F80161918F01C10173
:103BF0000E94431BF6CF62E2B2CFCD90DD90ED90F4
:103C0000FC90B701A601F7FE0BC06DE2C1010E9456
:103C10002E1B44275527BA014C195D096E097F09EF
:103C2000C1010E94E21A85CD4D915D916D917C910B
:103C3000F7CF8C9163E571E0811102C068E571E016
:103C4000C1010E94D81A75CD0F931F93CF93DF93B4
:103C5000CDB7DEB7C251D2400FB6F894DEBF0FBE6B
:103C6000CDBFCE0101960E9482168E85982F9F7738
:103C700039F4807880628E871B861A861D861C86A2
:103C80008E8510E000E085FF1EC06EE571E0CE017C
:103C90000A960E945E018C01892B61F4AE014F5F90
:103CA0005F4F6EE571E0CE010A960E9408028C011A
:103CB000892B49F0F80184818078806284831182A5
:103CC000108213821282AE014F5F5F4F62E671E095
:103CD000C8010E945802AE014F5F5F4F70E060E084
:103CE0000E94CF01FC01892B81F04091F205509197
:103CF000F3056091F4057091F505948190789C60CE
:103D000094834083518362837383AE014F5F5F4F1F
:103D100062E671E0C8010E945802AE014F5F5F4F3A
:103D200061E070E00E94CF01FC01892B81F040919D
:103D3000EE055091EF056091F0057091F1059481C9
:103D400090789C6094834083518362837383AE0137
:103D50004F5F5F4F65E671E0C8010E945802AE01F7
:103D60004F5F5F4F70E060E00E94CF01FC01892B44
:103D700081F02091EB053091EC05948190789A6068
:103D80009483C901330FAA0BBB0B80839183A28359
:103D9000B383AE014F5F5F4F65E671E0C8010E94DB
:103DA0005802AE014F5F5F4F61E070E00E94CF01AB
:103DB000FC01892B81F02091E7053091E805948181
:103DC00090789A609483C901330FAA0BBB0B808350
:103DD0009183A283B383AE014F5F5F4F65E671E0CD
:103DE000C8010E945802AE014F5F5F4F62E070E071
:103DF0000E94CF01FC01892B81F02091E9053091CF
:103E0000EA05948190789A609483C901330FAA0BD4
:103E1000BB0B80839183A283B383AE014F5F5F4F5F
:103E200065E671E0C8010E945802AE014F5F5F4F26
:103E300063E070E00E94CF01BC018091AF040E945A
:103E40004101AE014F5F5F4F65E671E0C8010E941E
:103E50005802AE014F5F5F4F64E070E00E94CF01F7
:103E6000BC018091B2040E944101AE014F5F5F4FDF
:103E700065E671E0C8010E945802AE014F5F5F4FD6
:103E800065E070E00E94CF01BC018091E0050E94D6
:103E90004101AE014F5F5F4F65E671E0C8010E94CE
:103EA0005802AE014F5F5F4F66E070E00E94CF01A5
:103EB000BC018091ED050E94410188E197E0C15F5E
:103EC000DD4F99838883CF50D240CF5EDD4F19827A
:103ED0001882C151D240BE01615F7D4FCE010A966A
:103EE0000E94631B88E197E00E946A29CE5EDD4F45
:103EF0000FB6F894DEBF0FBECDBFDF91CF911F91FB
:103F00000F9108950F931F9303E010E021E230E03A
:103F100043E250E062E270E08AE196E00E9482248F
:103F200082E993E00E940F2286EE92E00E940F2227
:103F30008AE392E00E940F228EE891E01F910F9198
:103F40000C940F228F929F92AF92BF92CF92DF92EA
:103F5000EF92FF920F931F93CF93DF93CDB7DEB70E
:103F6000CB55D2400FB6F894DEBF0FBECDBF92ED59
:103F7000C92E94E0D92ECE0101967C0100E411E017
:103F800088E197E00E94D826181619060CF07DC12A
:103F900088E197E00E94F2262091D0043091D1046C
:103FA000F901EE52FB4F80832F5F3F4F3093D104D6
:103FB0002093D0048A3021F7C7010E94821689819C
:103FC0009A819C838B838F8198859E838D831986AC
:103FD0001E8682ED882E84E0982EC15FDD4F888298
:103FE0009982AA82BB82CF50D240CD5EDD4F18822B
:103FF000C351D240CC5EDD4FD982C882C451D24079
:10400000C95EDD4F1882C751D240C85EDD4FF982CC
:10401000E882C851D240C65ADD4F19821882CA556B
:10402000D2402AE040E0BE01665F7F4FCE01815F53
:104030009D4F0E94F918C65ADD4F88819981CA5553
:10404000D240009719F00115110599F4CA5EDD4FB1
:104050002881C651D240222361F02E8523FF09C05A
:104060001092D1041092D0040115110509F088CFE7
:1040700006C01092D1041092D004892BA9F769E6EA
:1040800071E0CE010A960E94BB1A009721F070E001
:1040900060E00E947F010E94921660931206709366
:1040A0001306809314069093150669E671E0CE011D
:1040B0000A960E94BB1A009721F061E070E00E940E
:1040C0007F010E94921660930A0670930B068093FC
:1040D0000C0690930D0669E671E0CE010A960E94E7
:1040E000BB1A009721F062E070E00E947F010E94FD
:1040F00092166093060670930706809308069093C5
:10410000090669E671E0CE010A960E94BB1A009783
:1041100021F063E070E00E947F010E94921660939C
:104120000E0670930F0680931006909311066CE6AE
:1041300071E0CE010A960E94BB1A009721F070E050
:1041400060E00E947F010E94D91680934E046CE6C5
:1041500071E0CE010A960E94BB1A009721F061E03F
:1041600070E00E947F010E94D916809317066CE6CA
:1041700071E0CE010A960E94BB1A009721F062E01E
:1041800070E00E947F010E94D916809316066FE6A8
:1041900071E0CE010A960E94BB1A009721F070E0F0
:1041A00060E00E947F010E9439179093DF058093A1
:1041B000DE056FE671E0CE010A960E94BB1A0097F9
:1041C00021F061E070E00E947F010E943917909316
:1041D000DD058093DC056FE671E0CE010A960E9452
:1041E000BB1A009721F062E070E00E947F010E94FC
:1041F00039179093DB058093DA056FE671E0CE0105
:104200000A960E94BB1A009721F063E070E00E94BA
:104210007F010E9439179093D9058093D8056FE6E6
:1042200071E0CE010A960E94BB1A009721F064E06B
:1042300070E00E947F010E9439179093D705809308
:10424000D6056FE671E0CE010A960E94BB1A009770
:1042500021F065E070E00E947F010E943917909381
:10426000D5058093D4056FE671E0CE010A960E94D1
:10427000BB1A009721F066E070E00E947F010E9467
:1042800039179093D3058093D205C55ADD4F0FB6E9
:10429000F894DEBF0FBECDBFDF91CF911F910F917C
:1042A000FF90EF90DF90CF90BF90AF909F908F9056
:1042B00008950F931F9384E10E947626892B09F0BD
:1042C0005EC080916E048F5F80936E04843608F424
:1042D0004FC01092DF051092DE051092DD0510929E
:1042E000DC051092DB051092DA051092D9051092C8
:1042F000D8051092D7051092D6051092D5051092C8
:10430000D4051092D3051092D2051092EC051092AC
:10431000EB051092E8051092E7051092E605109261
:10432000E50582E090E09093E4058093E305109228
:10433000EA051092E9050E94DA140E94A52560930F
:10434000430470934404809345049093460485B7D6
:10435000837E806185BF85B7806285BF889585B77C
:104360008F7D85BF62E771E08BE796E00E946E2942
:1043700080916E04853618F084E680936E0484E1A3
:104380000E947626019709F045C010926E0485B709
:104390008F7D85BF0E94A5250091430410914404A0
:1043A0002091450430914604601B710B820B930BE6
:1043B0006436710581059105A8F440E070E060E085
:1043C0008AE196E00E94182440E061E070E08AE112
:1043D00096E00E94182440E062E070E08AE196E0F6
:1043E0000E9418240E94A21F82E993E00E94F722F3
:1043F0008EE891E00E94F7220E94F2040E943409A4
:104400000E94520D0E94B20D0E94B1151F910F9192
:104410000C9443131F910F9108950C945921CF923E
:10442000DF92EF92FF92CF93DF93EC010E94A525DC
:104430007E012CE8E20EF11CFE01B8966E019E0191
:10444000245C3F4FD7011D927D0111921192D6013C
:104450006D937D938D939D936D01AF01425B5F4F93
:10446000DA011D921C92E217F30761F7C655DF4F80
:1044700019821882DF91CF91FF90EF90DF90CF905B
:104480000895FC01E655FF4F208131812A30310526
:1044900064F4E258F10990E080E021913191232BFE
:1044A00031F001968A309105C1F78FEF9FEF0895A3
:1044B0004F925F926F927F92AF92BF92CF92DF92B4
:1044C000EF92FF920F931F93CF93DF93EC012A019A
:1044D0003B01790168010E9441228C0197FD3FC098
:1044E000E114F104E1F15C01AA0CBB1CAA0CBB1C99
:1044F000AC0EBD1EF50144AE55AE66AE77AEF8010A
:10450000EE0FFF1FEC0FFD1FF1A6E0A6EC59FF4FC9
:10451000D182C082FE01E00FF11FE457FF4F81E01E
:1045200080830E94A525F501608371838283938334
:10453000C655DF4F88819981019699838883C80188
:10454000DF91CF911F910F91FF90EF90DF90CF906F
:10455000BF90AF907F906F905F904F9008950FEF56
:104560001FEFEDCF0F931F9310E000E00E94582241
:104570001F910F910895CF93DF936A307105A4F5D1
:10458000DC01A655BF4F2D913C91119721153105A6
:1045900059F1FB01EE0FFF1FE80FF91F40A551A5D0
:1045A000452B11F111A610A6EC01C60FD71FC45759
:1045B000DF4F1882EF01CA56DF4F19821882615F00
:1045C0007F4F660F771F660F771F680F791FEB010C
:1045D000188219821A821B82E858FF4F11821082BA
:1045E000215031092D933C93DF91CF9108952F9263
:1045F0003F924F925F926F927F928F929F92AF9273
:10460000BF92CF92DF92EF92FF920F931F93CF93BF
:10461000DF93EC010E94A525FE01B8964E01B12C56
:10462000A12C41E050E022E0222E312C8F010259D2
:104630001F4FD8011D921C92208131813296232B6D
:10464000A1F1D4010D911D912D913C911397DC9610
:10465000CD90DD90ED90FC90DF972B013C01401A4E
:10466000510A620A730A4C145D046E047F04E8F078
:104670000C0D1D1D2E1D3F1D0D931D932D933C9361
:104680001397950124573F4F2C0F3D1FD9012C91B3
:10469000222359F022AD33AD21153105C1F59F011B
:1046A00024593F4FD9014D935C93BFEFAB1ABB0A1E
:1046B00024E0820E911CAAE0AA16B10409F0B6CF3C
:1046C0007E01B6E9EB0EF11C10E000E0F7018191EC
:1046D00091917F0181309105C1F10297E9F10F5F5E
:1046E0001F4F0A30110591F7DF91CF911F910F9164
:1046F000FF90EF90DF90CF90BF90AF909F908F9002
:104700007F906F905F904F903F902F9008956F0132
:10471000BEE4CB0ED11CD601ED90FC90E216F30660
:1047200024F68F0104591F4FD8014D935C93BFEFBE
:10473000EB1AFB0AD601ED92FC92E216F3060CF49A
:10474000B4CFD8012D923C92B0CFE057F10901903F
:10475000F081E02D0995C3CFE057F1090190F08178
:10476000E02D0995B801CE010E94BB22B8CF8F92EF
:104770009F92AF92BF92CF92DF92EF92FF920F93F0
:104780001F93CF93DF9300D0CDB7DEB78C01498361
:104790002A83660F771FF801EA5AFF4FE080F18005
:1047A000EE0CFF1CF801CF01801B910B8E159F05AD
:1047B00014F41192F8CF8981F801E60FF71F818375
:1047C0008A818083680184E5C80ED11C60E0F6010F
:1047D00080810E9448264801F2E58F0E911C580105
:1047E00080E5A80EB11C1E141F047CF4E1E0EE1A53
:1047F000F108F801EE0DFF1D208141E0F401608118
:10480000F50180810E949F26EECF61E0F601808154
:104810000F900F90DF91CF911F910F91FF90EF902C
:10482000DF90CF90BF90AF909F908F900C944826D0
:1048300077FD0FC0FC01EA5AFF4F208131816217DA
:1048400073073CF420E0411101C021E04CE00C94DE
:10485000B723089577FD0FC0FC01EA5AFF4F20816E
:104860003181621773073CF44830510520F4242F3E
:104870004BE00C94B723089577FD0FC0FC01EA5A72
:10488000FF4F20813181621773073CF4403151059D
:1048900020F4242F4AE00C94B7230895DF92EF927E
:1048A000FF920F931F93CF93DF9377FD23C0FC01FB
:1048B000EA5AFF4F2081318162177307DCF4EB0164
:1048C0007C018B0183E0000F111F8A95E1F7005FE7
:1048D0001F4F0E0D1F1DDD24D394F80111928F017F
:1048E00020E04D2DBE01C7010E94B723D394F9E00B
:1048F000DF12F3CFDF91CF911F910F91FF90EF90D7
:10490000DF9008956F927F928F929F92AF92BF92A5
:10491000CF92DF92EF92FF920F931F93CF93DF938B
:10492000EC01D62EC72E7C0180E5E80EF11CF701C4
:10493000608371833E01F2E56F0E711CF3015183B8
:1049400040834E01F4E58F0E911CF40131832083E6
:10495000C8010197089710F008E010E05E01F6E545
:10496000AF0EB11CF5011183008361E08D2D0E9413
:104970000C2661E0F30180810E940C2661E0F401C5
:1049800080810E940C2661E0F40180810E9448260B
:10499000F701D082C182FE0170961192EE15FF05DB
:1049A000E1F710E000E0F501808191810817190717
:1049B000F4F420E04FE0B801CE010E94B72347E0B5
:1049C00050E0B801CE010E942A2420E049E0B8015D
:1049D000CE010E94B723B801CE010E944E2441E0CF
:1049E000B801CE010E9418240F5F1F4FDCCFDF916A
:1049F000CF911F910F91FF90EF90DF90CF90BF90DC
:104A0000AF909F908F907F906F9008950F9377FD58
:104A100025C0FC01EA5AFF4F0190F081E02D6E178E
:104A20007F07E4F448305105C8F42031B8F4DB01C5
:104A300033E0AA0FBB1F3A95E1F7E22FF0E0EC520A
:104A4000FF4F249101112068A80FB91FA40FB51FB3
:104A500050962C934F5F0F910C94B7230F910895AC
:104A60000F93E22F77FD25C0DC01AA5ABF4F2D918D
:104A70003C9162177307ECF448305105D0F4DB0128
:104A800023E0AA0FBB1F2A95E1F7E7FDE0E20E2E17
:104A9000000CFF0BEC52FF4F249101112068A80F6E
:104AA000B91FA40FB51F50962C934F5F0F910C9414
:104AB000B7230F9108951F920F920FB60F921124F2
:104AC0002F933F938F939F93AF93BF9380917706DC
:104AD00090917806A0917906B0917A063091760689
:104AE00023E0230F2D3768F126E8230F0296A11D3E
:104AF000B11D209376068093770690937806A09355
:104B00007906B0937A068091720690917306A0910F
:104B10007406B09175060196A11DB11D80937206B1
:104B200090937306A0937406B0937506BF91AF91EE
:104B30009F918F913F912F910F900FBE0F901F90DB
:104B400018950196A11DB11DD4CF2FB7F89460918F
:104B50007706709178068091790690917A062FBF3A
:104B60000895789483B78C6483BF87B7816087BFCB
:104B700082E08EBD8EB581608EBD8FB581608FBDA8
:104B800085B5846085BD85B5806485BDEAE8F0E0C3
:104B9000808183608083EBE8F0E0808181608083A6
:104BA00087E886B91AB80895809326010895815040
:104BB0008C3088F5E82FF0E0E052FA4D0C94102F7D
:104BC000082608260B26EC25F025F325F6250B26CE
:104BD0000B26FA25002604268FB58F778FBD089502
:104BE0008FB58F7DFBCF8FB5877FF8CF85B58F7D54
:104BF00085BD089580918B008F7780938B000895F9
:104C000080918B008F7DF9CF80918B00877FF5CFCE
:104C100083B78F7D83BF0895CF93DF9390E0FC012E
:104C2000E757FE4F249182549E4FFC0184918823C4
:104C3000C9F090E0880F991FFC01ED5EFD4FA59132
:104C4000B491FC01ED5FFD4FC591D49161110DC090
:104C50009FB7F8948C91209582238C938881282388
:104C600028839FBFDF91CF910895623051F49FB7A1
:104C7000F8943C91822F809583238C93E8812E2B8E
:104C8000EFCF8FB7F894EC912E2B2C938FBFEACFF8
:104C90001F93CF93DF93282F30E0F901EC5AFE4F9A
:104CA0008491F901E757FE4FD491F901E254FE4F88
:104CB000C491CC23A9F0162F81110E94D725EC2F87
:104CC000F0E0EE0FFF1FED5FFD4FA591B4918FB7A0
:104CD000F894EC91111108C0D095DE23DC938FBFBE
:104CE000DF91CF911F910895DE2BF8CFCF93DF9303
:104CF000282F30E0F901EC5AFE4F8491F901E75773
:104D0000FE4FD491F901E254FE4FC491CC23A1F09F
:104D100081110E94D725EC2FF0E0EE0FFF1FED5020
:104D2000FE4FA591B491EC91ED2381E090E009F460
:104D300080E0DF91CF91089580E090E0FACFBF92BC
:104D4000CF92DF92EF92FF920F931F93CF93DF9357
:104D5000C82ED62EB42ED0E0C0E0022F10E087E09F
:104D6000E82EF12CB8018C2FBB2019F0C7018C1B49
:104D70009D0B02C0759567958A95E2F761708C2D41
:104D80000E94482661E08D2D0E94482660E08D2D0E
:104D90000E9448262196C830D10521F7DF91CF9196
:104DA0001F910F91FF90EF90DF90CF90BF900895EB
:104DB000FC01918D228D892F90E0805C9F4F821B9A
:104DC00091098F7399270895FC01918D828D981711
:104DD00031F0828DE80FF11D858D90E008958FEF01
:104DE0009FEF0895FC01918D828D981761F0A28D3F
:104DF000AE0FBF2FB11D5D968C91928D9F5F9F73FB
:104E0000928F90E008958FEF9FEF0895FC01538DEE
:104E1000448D252F30E0842F90E0821B930B541794
:104E200010F0CF9608950197089588E698E2892BAF
:104E300049F080E090E0892B29F00E9468288111D8
:104E40000E94000087EF98E2892B49F080E090E013
:104E5000892B29F00E94F72881110C9400000895F5
:104E6000FC01A48DA80FB92FB11DA35ABF4F2C91DF
:104E7000848D90E001968F739927848FA689B789D6
:104E80002C93A089B1898C9180648C93938D848DAF
:104E9000981306C00288F389E02D80818F7D80837E
:104EA0000895CF93DF93EC01888D8823B9F0AA8908
:104EB000BB89E889F9898C9185FD03C0808186FDD5
:104EC0000DC00FB607FCF7CF8C9185FFF2CF808124
:104ED00085FFEDCFCE010E943027E9CFDF91CF9142
:104EE0000895EF92FF920F931F93CF93DF93EC01FE
:104EF00081E0888F9B8D8C8D981316C0E889F98985
:104F0000808185FF11C0EE89FF896083E889F98976
:104F100080818064808381E090E0DF91CF911F9158
:104F20000F91FF90EF900895F62E0B8D10E00F5F1C
:104F30001F4F0F731127E02E8C8D8E110CC00FB6F2
:104F400007FCFACFE889F989808185FFF5CFCE018A
:104F50000E943027F1CFEB8DEC0FFD2FF11DE35AAE
:104F6000FF4FF0820B8FEA89FB8980818062D2CF6C
:104F7000CF92DF92EF92FF921F93CF93DF93EC01DA
:104F80006A017B01122FE889F98982E08083C114CC
:104F900081EED806E104F104A1F060E079E08DE350
:104FA00090E0A70196010E94CF2E215031094109BE
:104FB00051095695479537952795211580E1380772
:104FC00098F0E889F989108260E874E88EE190E051
:104FD000A70196010E94CF2E2150310941095109A4
:104FE0005695479537952795EC85FD853083EE8559
:104FF000FF852083188EEC89FD891083EA89FB895F
:10500000808188698083EA89FB8980818F7D8083A4
:10501000DF91CF911F91FF90EF90DF90CF90089597
:105020001F920F920FB60F9211242F938F939F937D
:10503000EF93FF93E0918B06F0918C068081E091D5
:105040009106F091920682FD1BC09081809194069A
:105050008F5F8F7320919506821741F0E09194063F
:10506000F0E0E558F94F958F80939406FF91EF910A
:105070009F918F912F910F900FBE0F901F901895B9
:105080008081F4CF1F920F920FB60F9211242F93AD
:105090003F934F935F936F937F938F939F93AF93C0
:1050A000BF93EF93FF938BE796E00E943027FF9129
:1050B000EF91BF91AF919F918F917F916F915F9190
:1050C0004F913F912F910F900FBE0F901F90189509
:1050D0008BE796E00E94D82621E0892B09F420E096
:1050E000822F0895EBE7F6E01382128288EE93E0B8
:1050F000A0E0B0E084839583A683B7838CE791E03A
:105100009183808380E990E09587848789E290E0AD
:10511000978786878BE290E0918B808B8AE290E084
:10512000938B828B85E990E0958B848B8CE290E069
:10513000978B868B118E128E138E148E08951F926C
:105140000F920FB60F9211242F938F939F93EF938B
:10515000FF93E0912807F09129078081E0912E07C5
:10516000F0912F0782FD1BC09081809131078F5FE6
:105170008F7320913207821741F0E0913107F0E000
:10518000E85EF84F958F80933107FF91EF919F91E3
:105190008F912F910F900FBE0F901F9018958081C7
:1051A000F4CF1F920F920FB60F9211242F933F93BB
:1051B0004F935F936F937F938F939F93AF93BF931F
:1051C000EF93FF9388E197E00E943027FF91EF91E2
:1051D000BF91AF919F918F917F916F915F914F910F
:1051E0003F912F910F900FBE0F901F90189588E15F
:1051F00097E00E94D82621E0892B09F420E0822F35
:105200000895E8E1F7E01382128288EE93E0A0E0CF
:10521000B0E084839583A683B7838CE791E0918384
:10522000808388E990E09587848789E990E0978773
:1052300086878BE990E0918B808B8AE990E0938B55
:10524000828B8DE990E0958B848B8CE990E0978B35
:10525000868B118E128E138E148E0895AF92BF928C
:10526000CF92DF92EF92FF920F931F93CF93DF9332
:105270006C017B018B01040F151FEB015E01AE1861
:10528000BF08C017D10759F06991D601ED91FC9183
:105290000190F081E02DC6010995892B79F7C501B0
:1052A000DF91CF911F910F91FF90EF90DF90CF9002
:1052B000BF90AF900895FB0101900020E9F731976E
:1052C000AF01461B570BDC01ED91FC910280F3818D
:1052D000E02D09946AE871E00C945B290F931F9309
:1052E000CF93DF938C01D0E0C0E06115710519F018
:1052F0000E945B29EC01C8010E946A298C0F9D1F46
:10530000DF91CF911F910F9108954F925F926F920D
:105310007F928F929F92AF92BF92CF92DF92EF9245
:10532000FF920F931F93CF93DF9300D000D01F9273
:10533000CDB7DEB7909127018917C1F09F3FF1F0FB
:105340000F900F900F900F900F90DF91CF911F91C2
:105350000F91FF90EF90DF90CF90BF90AF909F9014
:105360008F907F906F905F904F900895E3E2F2E00E
:1053700094919D839D8197FDE3CF4BC0809327013E
:10538000E3E2F2E094919D839F3FD1F2913011F1DD
:10539000923081F715BC15BC95B5986095BD95B553
:1053A000916095BDA82FB0E0FD01E254FE4FE4915D
:1053B000F0E0EE0FFF1FED5FFD4F0591149110938C
:1053C000B7070093B607FD01E757FE4FE491E0935E
:1053D000B5071FC01FBC1EBC9EB598609EBD9EB584
:1053E00091609EBDA82FB0E0FD01E254FE4FE49114
:1053F000F0E0EE0FFF1FED5FFD4F0591149110934C
:10540000BE070093BD07FD01E757FE4FE491E0930F
:10541000BC0729013A018B0161E00E940C2648017A
:10542000B12CA12C8D818D7F09F0B4C060E072E1B8
:105430008AE790E0A50198010E94F12E29833A8322
:105440004B835C8369017A0181E0C81AD108E108C5
:10545000F10881E09FEFC916D104E104F10409F0DD
:105460000CF478C060E472E48FE090E0A50198014C
:105470000E94F12E69017A0181E0C81AD108E10881
:10548000F1089D81911100C18FEFC816D104E1048C
:10549000F10409F00CF4FFC060E970ED83E090E0E6
:1054A000A50198010E94F12E69017A0191E0C91AC3
:1054B000D108E108F1088FEFC816D104E104F10426
:1054C00009F00CF4DFC068E478EE81E090E0A5011B
:1054D00098010E94F12E69017A0191E0C91AD10860
:1054E000E108F1088FEFC816D104E104F10409F0D6
:1054F00014F484E02FC064E274EF80E090E0A50132
:1055000098010E94F12E69017A0191E0C91AD1082F
:10551000E108F1088FEFC816D104E104F10409F0A5
:1055200008F4E2C062E17AE780E090E0A50198012A
:105530000E94F12E69017A0191E0C91AD108E108AF
:10554000F1088FEFC816D104E104F10411F008F05E
:10555000CDC086E095B5987F892B85BD2FEF3FEFB5
:10556000A901411451046104710409F048C09D81EE
:10557000913009F463C0923009F0E2CEC3BC2093AD
:10558000B8073093B9074093BA075093BB0787B762
:10559000806860C060E072E18AE790E0A501980150
:1055A0000E94F12E69017A0191E0C91AD108E1083F
:1055B000F10891E0C114D10481E0E806F10484F01F
:1055C00068E478EE81E090E0A50198010E94F12E58
:1055D00069017A0191E0C91AD108E108F10893E064
:1055E0008D818130D1F48EB5887F892B8EBD2FEFD0
:1055F0003FEFA9014114510461047104F9F0D8018D
:10560000AA0FBB1FA30192010E94162F28EE33E0C0
:1056100040E050E00E94CF2EAACF8D81833009F068
:105620009DCF80918A00887F892B80938A004114C6
:1056300051046104710409F483CEE1CFDBBCCABC20
:105640002093BF073093C0074093C1075093C20710
:1056500087B7806187BF74CE68E478EE81E090E020
:10566000A50194010E94F12E69017A0181E0C81A16
:10567000D108E108F1089FEFC916D104E104F10453
:1056800009F05CF483E066CF8FEFC816D104E10423
:10569000F10409F00CF782E05DCF62E17AE780E087
:1056A00090E0A50194010E94F12E69017A0191E038
:1056B000C91AD108E108F1088FEFC816D104E10436
:1056C000F10409F008F415CFC980DA80EB80FC8082
:1056D0009AE0F594E794D794C7949A95D1F791E01E
:1056E000C91AD108E108F10885E034CFC980DA8011
:1056F000EB80FC808AE0F594E794D794C7948A9570
:10570000D1F781E0C81AD108E108F10887E022CF7B
:10571000813031F018F0823039F0089517BE0895C5
:1057200087B78F7E87BF089587B78F7787BF80E45D
:1057300085BD85B5887F846085BD13BC0895CF93F2
:10574000C82F80912701C8130DC0E3E2F2E08491D5
:105750009FEF909327010E94882B60E08C2FCF91C0
:105760000C9448268FEFF7CF1F920F920FB60F922F
:1057700011242F933F934F935F936F937F938F9356
:105780009F93AF93BF93EF93FF938091B80790914E
:10579000B907A091BA07B091BB07892B8A2B8B2B35
:1057A000D1F19091B507E091B607F091B7078081EC
:1057B000892780838091B8079091B907A091BA0793
:1057C000B091BB07181619061A061B069CF48091A7
:1057D000B8079091B907A091BA07B091BB0701979C
:1057E000A109B1098093B8079093B907A093BA07AC
:1057F000B093BB07FF91EF91BF91AF919F918F91B4
:105800007F916F915F914F913F912F910F900FBEBC
:105810000F901F901895809127010E949F2BEACF2F
:105820004F925F926F927F92AF92BF92CF92DF9230
:10583000EF92FF920F931F93CF93DF93CDB7DEB715
:1058400029013A019B01AC01241935094609570980
:1058500089899A89AB89BC89BC01CD016A197B0908
:105860008C099D090E949F2EA801970124193509D2
:10587000460957090E94F12ECA01B9016A0D7B1D24
:105880008C1D9D1DDF91CF911F910F91FF90EF9087
:10589000DF90CF90BF90AF907F906F905F904F90D0
:1058A000089508950E94B1250E94512C0E94EF0393
:1058B000C5E1D7E20E940D222097E1F30E9415274F
:1058C000F9CF5058BB27AA270E94792C0C94F32DAE
:1058D0000E94E52D38F00E94EC2D20F039F49F3F16
:1058E00019F426F40C94E22D0EF4E095E7FB0C94E9
:1058F000DC2DE92F0E94042E58F3BA1762077307B4
:105900008407950720F079F4A6F50C94262E0EF462
:10591000E0950B2EBA2FA02D0B01B90190010C01BF
:10592000CA01A0011124FF27591B99F0593F50F4D7
:10593000503E68F11A16F040A22F232F342F44272F
:10594000585FF3CF469537952795A795F040539527
:10595000C9F77EF41F16BA0B620B730B840BBAF0F7
:105960009150A1F0FF0FBB1F661F771F881FC2F762
:105970000EC0BA0F621F731F841F48F48795779576
:105980006795B795F7959E3F08F0B0CF9395880F30
:1059900008F09927EE0F9795879508950E94B82DE6
:1059A00008F481E008950E94E72C0C94F32D0E94E6
:1059B000EC2D58F00E94E52D40F029F45F3F29F0CE
:1059C0000C94DC2D51110C94272E0C94E22D0E9486
:1059D000042E68F39923B1F3552391F3951B550BCE
:1059E000BB27AA2762177307840738F09F5F5F4FB2
:1059F000220F331F441FAA1FA9F335D00E2E3AF0F1
:105A0000E0E832D091505040E695001CCAF72BD008
:105A1000FE2F29D0660F771F881FBB1F2617370759
:105A20004807AB07B0E809F0BB0B802DBF01FF278B
:105A300093585F4F3AF09E3F510578F00C94DC2D5F
:105A40000C94272E5F3FE4F3983ED4F38695779528
:105A50006795B795F7959F5FC9F7880F911D969544
:105A6000879597F90895E1E0660F771F881FBB1FA0
:105A7000621773078407BA0720F0621B730B840B4D
:105A8000BA0BEE1F88F7E09508950E944C2D68949C
:105A9000B1110C94272E08950E940C2E88F09F5768
:105AA00098F0B92F9927B751B0F0E1F0660F771F42
:105AB000881F991F1AF0BA95C9F714C0B13091F038
:105AC0000E94262EB1E008950C94262E672F782F81
:105AD0008827B85F39F0B93FCCF3869577956795FD
